:020000040000fa
:080000000001040000000000f3
:020000040000fa
:040008002e030000c3
:020000040000fa
:04000c00700300007d
:020000040000fa
:04001000b003000039
:020000040000fa
:040014004e03000097
:020000040000fa
:040018009003000051
:020000040000fa
:04001c0014050000c7
:020000040000fa
:0400200014050000c3
:020000040000fa
:0400240014050000bf
:020000040000fa
:0400280014050000bb
:020000040000fa
:04002c0014050000b7
:020000040000fa
:0400300014050000b3
:020000040000fa
:04003400a80400001c
:020000040000fa
:0400380014050000ab
:020000040000fa
:04003c0014050000a7
:020000040000fa
:0400400014050000a3
:020000040000fa
:04004400de040000d6
:020000040000fa
:04004800140500009b
:020000040000fa
:04004c001405000097
:020000040000fa
:040050001405000093
:020000040000fa
:040054002c04000078
:020000040000fa
:04005800d0030000d1
:020000040000fa
:04005c001405000087
:020000040000fa
:040060001405000083
:020000040000fa
:04006400140500007f
:020000040000fa
:04006800140500007b
:020000040000fa
:04006c001405000077
:020000040000fa
:040070001405000073
:020000040000fa
:04007400f402000092
:020000040000fa
:04007800140500006b
:020000040000fa
:04007c001405000067
:020000040000fa
:040080001405000063
:020000040000fa
:04008400140500005f
:020000040000fa
:04008800140500005b
:020000040000fa
:04008c001405000057
:020000040000fa
:040090001405000053
:020000040000fa
:04009400140500004f
:020000040000fa
:04009800140500004b
:020000040000fa
:04009c001405000047
:020000040000fa
:0400a0001405000043
:020000040000fa
:0400a400140500003f
:020000040000fa
:0400a800140500003b
:020000040000fa
:0400ac001405000037
:020000040000fa
:0400b0001405000033
:020000040000fa
:0400b400140500002f
:020000040000fa
:0400b800140500002b
:020000040000fa
:0400bc001405000027
:020000040000fa
:0400c0001405000023
:020000040000fa
:0400c400140500001f
:020000040000fa
:0400c800140500001b
:020000040000fa
:0400cc001405000017
:020000040000fa
:0400d0001405000013
:020000040000fa
:0400d400140500000f
:020000040000fa
:0400d800140500000b
:020000040000fa
:0400dc001405000007
:020000040000fa
:0400e0001405000003
:020000040000fa
:0400e40014050000ff
:020000040000fa
:0400e80014050000fb
:020000040000fa
:0400ec0014050000f7
:020000040000fa
:0400f00014050000f3
:020000040000fa
:0400f40014050000ef
:020000040000fa
:0400f80014050000eb
:020000040000fa
:0400fc0014050000e7
:020000040000fa
:0401000014050000e2
:020000040000fa
:0401040014050000de
:020000040000fa
:0401080014050000da
:020000040000fa
:04010c0014050000d6
:020000040000fa
:0401100014050000d2
:020000040000fa
:0401140014050000ce
:020000040000fa
:0401180014050000ca
:020000040000fa
:04011c0014050000c6
:020000040000fa
:0401200014050000c2
:020000040000fa
:0401240014050000be
:020000040000fa
:0401280014050000ba
:020000040000fa
:04012c009204000039
:020000040000fa
:0401300014050000b2
:020000040000fa
:0401340014050000ae
:020000040000fa
:0401380014050000aa
:020000040000fa
:04013c0014050000a6
:020000040000fa
:0401400014050000a2
:020000040000fa
:04014400140500009e
:020000040000fa
:04014800140500009a
:020000040000fa
:04014c001405000096
:020000040000fa
:040150001405000092
:020000040000fa
:04015400140500008e
:020000040000fa
:04015800140500008a
:020000040000fa
:04015c001405000086
:020000040000fa
:040160001405000082
:020000040000fa
:04016400140500007e
:020000040000fa
:04016800140500007a
:020000040000fa
:04016c001405000076
:020000040000fa
:040170001405000072
:020000040000fa
:04017400140500006e
:020000040000fa
:04017800140500006a
:020000040000fa
:04017c001405000066
:020000040000fa
:040180001405000062
:020000040000fa
:04018400140500005e
:020000040000fa
:04018800140500005a
:020000040000fa
:04018c001405000056
:020000040000fa
:040190001405000052
:020000040000fa
:04019400140500004e
:020000040000fa
:04019800140500004a
:020000040000fa
:04019c001405000046
:020000040000fa
:0401a0001405000042
:020000040000fa
:0401a400140500003e
:020000040000fa
:0401a800140500003a
:020000040000fa
:0401ac001405000036
:020000040000fa
:0401b0001405000032
:020000040000fa
:0401b400140500002e
:020000040000fa
:0401b800140500002a
:020000040000fa
:0401bc001405000026
:020000040000fa
:0401c0001405000022
:020000040000fa
:0401c400140500001e
:020000040000fa
:0401c800140500001a
:020000040000fa
:0401cc001405000016
:020000040000fa
:0401d0001405000012
:020000040000fa
:0401d400140500000e
:020000040000fa
:0401d800140500000a
:020000040000fa
:0401dc001405000006
:020000040000fa
:0401e0001405000002
:020000040000fa
:0401e40014050000fe
:020000040000fa
:0401e80014050000fa
:020000040000fa
:0401ec0014050000f6
:020000040000fa
:0401f00014050000f2
:020000040000fa
:0401f40014050000ee
:020000040000fa
:0401f80014050000ea
:020000040000fa
:0401fc0014050000e6
:020000040000fa
:100200006f0721000e7f24000e018800000000000f
:10021000000020000000e000020032000001200089
:1002200020028800140007006d0207000000e000b3
:1002300003003a0040382800010020000200370087
:100240000000200001002000810f7000010032003a
:1002500014000700000020000000e000020032004f
:100260000000020000000000fc8802000000000006
:100270000040da000000fe004440a9008063200036
:100280000000e00003003200002020009001880000
:100290004440a800000006008a1f78008b1f7800e9
:1002a00000000600a1028800800478000000eb0036
:1002b0001f003700e284440054a0b4009905ba003e
:1002c000e284440054a0b4009906ba00e2844400d9
:1002d00054a0b4000006eb00476fde00fd07b2003b
:1002e000ae018800636ce10003003a00eaff0700fa
:1002f0000000eb000e003700606ce10008003a00df
:10030000004deb000a05e800020039003420ec0043
:100310000af0a0008b05e900f9ff3e000400370059
:100320006168e100010032000086eb000b0007006d
:1003300019c7ba001905ba000e04e00003003a001c
:100340000a00e000dbff3a0000000600fe07b200f2
:10035000ae0288008a047800f5ff37000cd0a300b5
:10036000e20f4d001c00390089027800354dba00bb
:100370000a05e800020039003420ec000af0a00071
:100380008b05e9000f003200254dba000a05e80090
:10039000020039003420ec000af0a0008b05e900cf
:1003a000080032000c00e0000600320015cdba0053
:1003b0000a05e800020039003420ec000af0a00031
:1003c0008b05e9008984e80054a0b4000b00e0002c
:1003d000e2ff3a00000006009902ba00055d7800cd
:1003e0008b05e900f7ff3200c82ade00055d7800c2
:1003f0008b05e900f3ff32000c00e000f1ff320052
:1004000019ddba00eeff3700dc990400000000009f
:1004100088900400000000005a88040000000000da
:100420006699040000000000ac9804000000000081
:10043000149704000000000022880400000000005f
:100440004a860400000000008c86040000000000c2
:10045000f0870400000000000c8804000000000089
:10046000e28604000000000006870400000000008f
:1004700070870400000000002c87040000000000ca
:100480009070040000000000c86c04000000000030
:10049000be8d040000000000829b040000000000ec
:1004a0001c8e040000000000368e040000000000d6
:1004b000688e040000000000968e0400000000001a
:1004c000c68e040000000000d28e04000000000070
:1004d000f88e040000000000dc8e04000000000024
:1004e000d47d040000000000007e04000000000035
:1004f000407e0400000000002a7e0400000000008e
:10050000987d040000000000b67d0400000000009b
:10051000747e040000000000627d04000000000002
:100520008c9a0400000000007c81040000000000a0
:100530003e810400000000008a81040000000000e9
:10054000bc81040000000000748004000000000072
:10055000741f0400000000007e1f04000000000063
:10056000b21f040000000000be1f040000000000d5
:10057000c81f040000000000b24204000000000098
:10058000c03304000000000098790400000000005f
:1005900076920400000000000e94040000000000a9
:1005a000b07d040000000000ce7d040000000000cb
:1005b00048950400000000000096040000000000c0
:1005c00060980400000000007c08040000000000a7
:1005d000a8080400000000002c1504000000000022
:1005e00000000400000000003600f800809fbe00fc
:1005f000829fbe00849fbe00869fbe000000fa005e
:1006000050048000680060000000e0000c00320030
:100610008133800000002100008060000000e000c5
:1006200006003200d04480000000e00002003200ea
:10063000d0448000000001007186a9008a60a900f2
:100640000080fa004f03be004f02be004f01be0003
:100650004f00be003600f900004006003600f800ea
:10066000809fbe00829fbe00849fbe00869fbe000a
:100670000000fa008020a9000000eb003e4c0700bb
:100680000080fa004f03be004f02be004f01be00c3
:100690004f00be003600f900004006003600f800aa
:1006a000809fbe00829fbe00849fbe00869fbe00ca
:1006b0000000fa00354c07008040a900100020001f
:1006c0002d4c07000080fa004f03be004f02be0011
:1006d0004f01be004f00be003600f900004006008a
:1006e0003600f800809fbe00829fbe00849fbe003f
:1006f000869fbe000000fa008060a9002000200054
:100700001d4c07000080fa004f03be004f02be00e0
:100710004f01be004f00be003600f9000040060049
:100720003600f800809fbe00829fbe00849fbe00fe
:10073000869fbe000000fa008080a90030002000e3
:100740000d4c07000080fa004f03be004f02be00b0
:100750004f01be004f00be003600f9000040060009
:100760003600f800809fbe00829fbe00849fbe00be
:10077000869fbe000000fa008600a90070002000dd
:10078000fd4b07000080fa004f03be004f02be0081
:100790004f01be004f00be003600f90000400600c9
:1007a0003600f800809fbe00829fbe00849fbe007e
:1007b000869fbe000000fa00904280000000010009
:1007c0007142800060428000808f500002003a0039
:1007d0009980a900190037008980a900100037000e
:1007e00070428000904078008180fb00e11c88000e
:1007f0000000e800704288007142800090ff2000f5
:10080000808f500002003a0000ff200070428800f4
:100810007142800060428000808f500006003200ec
:10082000d11c800000202000008060000000e0005b
:10083000ebff320001003700000000000080fa00ea
:100840004f03be004f02be004f01be004f00be006e
:100850003600f900004006003600f800809fbe0018
:10086000829fbe00849fbe00869fbe000000fa00eb
:10087000a0428000000001008960a9001e0037002e
:1008800040428000f11c80008140780001487800df
:100890004142800010002100808f5000090032008a
:1008a000404280008000e80050428000808f50006d
:1008b00004003200404280000000e800404288000e
:1008c0000d0037004142800010002100808f500051
:1008d00007003a005142800090ff2000808f5000b6
:1008e0000300320090ff20004042880002003700e1
:1008f00010c0b30050e8b700d01c80006100600059
:100900000000e000deff3a000080fa004f03be0066
:100910004f02be004f01be004f00be003600f9007e
:1009200000400600801f78000000fa00d01c800004
:10093000620060000000e000010032009a23a9007c
:100940009020a9000080fa004f00780000400600c7
:100950003600f800809fbe00829fbe00849fbe00cc
:10096000869fbe000000fa00f04480000000e00016
:1009700002003200f044800000000100b0062100b7
:10098000104078008040e800b0062100014878005f
:10099000a006210011c0b300014878008860a900ba
:1009a0000080fa004f03be004f02be004f01be00a0
:1009b0004f00be003600f900004006003600f80087
:1009c000809fbe00829fbe00849fbe00869fbe00a7
:1009d0000000fa00204580000000e0000200320024
:1009e0002045800000000100d00621001040780062
:1009f0008040e800d006210001487800c0062100b0
:100a000011c0b3000148780088e0a9000080fa0016
:100a10004f03be004f02be004f01be004f00be009c
:100a20003600f900004006000040da000000fe0039
:100a30000a00fa00e20f500034003e00908380006c
:100a4000e10f500003003200e20f500011003a00a5
:100a50000c003700833920000300e00001003a0059
:100a60000040da009803e20002003500a023ef0006
:100a700099e3a8009b43ab000d003a009b43a800fc
:100a80000b003700e33a20000300e00001003a00c9
:100a90000040da00ae03e20002003500b623ef00aa
:100aa000afe3a800b143ab0001003a00b143a80096
:100ab000820178000b0037003102fb00e10f50008b
:100ac00004003a009b23ab00feff3a00e41c8800c0
:100ad00003003700b123ab00feff3a00941d8800ed
:100ae0008301e9000300e000f3ff3a00e10f50004a
:100af00003003a009b03ab00feff32000b003700ff
:100b0000b103ab00feff32000800370033002000c5
:100b1000b3bf9f00c0bf9f00d1bf9f00e2bf9f0037
:100b20006a805700810807006fb9970002007800bb
:100b30000080fa00000006000a00fa0051002000c0
:100b4000b1bf9f00c0bf9f006a80570079080700af
:100b50005fb897000080fa0000000600889fbe0082
:100b600080047800a08380000000e00004003a00c8
:100b70000e0007000084eb000000e00008003500d4
:100b8000a88380000900e00005003200090044004d
:100b9000060007000000e00001003d000084eb00bb
:100ba000080078004f04be000000060080007800b6
:100bb0000100e00003003a0000002000a08388004c
:100bc000000005000080eb0002002000828f500032
:100bd00002003e00a18388000000eb000000060038
:100be00000000500839f68000100e00002003d0056
:100bf00060001000e08018000300e00002003d00eb
:100c000060011100e0811900050007004f00e000bd
:100c100002003b0060001000e080180000000600a9
:100c20006022b800060220000000d0008180d200bf
:100c30000482d2008582d2000000a000020252008d
:100c400083825a00030031000202420083824a007c
:100c50000000a1000603e900f3ff3a0000000600cf
:100c6000a20020008000eb004b00370080017800dc
:100c700002003700b15978000201e9000200e000eb
:100c8000fcff3a00000006008001780002003700f7
:100c9000815978000201e9000200e000fcff3a00ff
:100ca00000000600a1d32000ec003700a1d32000f3
:100cb0007b030700800078000080eb000100e0006b
:100cc00004003500a1d32000a0002000e3000700ad
:100cd0004f80de0000000600020037000204e00042
:100ce0000b0032008101780000027800304178006a
:100cf000b14f5100f9ff320010002000144278007b
:100d0000934f5200030031000080eb00000006000a
:100d10000000eb0000000600800078000101780070
:100d20003104e000fdff3a00000051000000060021
:100d3000889fbe00810478000000e00002003a00b5
:100d40000883800001003700000478000800be001e
:100d500020040700000444001804e00004003a00e6
:100d6000e0052100008388000004eb000700370045
:100d70000800be00fc030700000044001004e0006f
:100d8000010032000058eb00008388000800780062
:100d90004f04be0000000600ee874700889fbe009b
:100da0008a9fbe008c9fbe008e1f7800f0b79f0008
:100db00001067800820578000004780008057800b4
:100dc0000a047800b84678000d00fb008e0007008a
:100dd0000000e000f9ff3a00d0c2b30080cf560017
:100de0000300320000c0e90080cf560002003a0044
:100df0000a05e80001003700804678000b00e0009b
:100e000005003500e18f550003003200400220004c
:100e1000808f5500060034006044b8000c00e000ec
:100e2000720032007fb09700000e78004800370053
:100e30000b00e0000e003200f08f55001a003a005f
:100e400000c3b3009a4f100017003a001a409000f8
:100e500081c7b300814f50000300320081c5b30049
:100e6000814f500010003a000a85e8000e0037005c
:100e7000ab00200000c3b3009a4f10000a003a00f4
:100e80001a40900081c7b300814f50000400320027
:100e90008b00200081c5b300814f500002003a0052
:100ea0000a85e8000b0120000a00780000027800a3
:100eb0000400780001c3b300b0cf1000fbff320084
:100ec000040778006044b800b4b79f000d003700f5
:100ed00081e6200081405000c1ef9f006159b900b8
:100ee0000800be00dc0707004fea97000401fb0082
:100ef000cf91de00c8b79f00d9b79f000204400021
:100f0000838448008e0278003e00fb0085bf9f006e
:100f1000450007000b0178008000780080e6200083
:100f20007b0307008fba97000000e000e8ff3a005b
:100f30003fb29700850f550007003a006044b800a3
:100f40000c00e00029003200ffb29700050e780087
:100f50006044b8002500370004825200d0e8200029
:100f600060c07d000000fb0000025200170033004b
:100f700011003a004fe997000200fb00cf80de002d
:100f80000000540081805c00800f5400818f5c0061
:100f9000090039006159b90085bf9f0020ff070093
:100fa0008fba97004fb19700dfb19700820f5000c2
:100fb000838f580005003200200220001083880033
:100fc0000084eb008084eb0005003700d0c2b30042
:100fd00080cf560002003a0060041400e0841c0038
:100fe0000c00e00001003200050e78000800be0091
:100ff0004f0778004f06be004f05be004f04be00ed
:10100000ef00b100000006006900e10004003500b7
:101010006d00e100030034000002b1000100320065
:101020000000050010000500800078001104b100e8
:10103000030035009101b10001003c000050a00008
:1010400000000600208380000000e0000100320064
:10105000000001002006210000000600889fbe005d
:101060008a1f78000004be00c9009000690090004b
:10107000808f5000060039000900780065030700e2
:10108000800078000080eb000100e00017003500d0
:10109000084578004900900008587800c00498007e
:1010a0001900780000b8a30004003a0000a8a300cb
:1010b00008003200ea4f540006003a0009007800a8
:1010c0003c020700800078000080eb000100e00097
:1010d00006003a0000c02000190060000200320043
:1010e00049009000e00498000a80fb004f0578005a
:1010f0004f04be0000000600889fbe000004780078
:1011000001007800820478008801780009017800e5
:1011100011002000aa020700890f500001003200d0
:101120000004eb00080078004f04be000000060039
:101130000000fa00e88157004fb99700a1d32000c2
:10114000c0872000cc0007000080fa0000000600e5
:10115000889fbe00000478000203be00810478006e
:101160000802780089017800120020000600be0005
:101170007a050700890f5000010032000004eb00df
:10118000080078004f04be00000006006800fa0066
:10119000889fbe008a9fbe0080047800010478000a
:1011a00082057800030578008400780000f92f009c
:1011b0000f00400067050700d98f9f00fb8f9f003d
:1011c0000000eb00a09f9f00e88f9f009a84fb0027
:1011d0000904fb008904ea00cf4cde005002200025
:1011e000800f54000d003200e18f54000b003a00d4
:1011f000090178008a0078007f889700df899700ce
:1012000003000100f08f9f000000e0009500320015
:101210002f9897000000e800a09f9f000905450057
:1012200050022000800f5400040032000800e0004b
:10123000e6ff3a002f9897008b0037000000eb0084
:10124000809f9f00f0979f00e0979f00d0979f009e
:10125000c0979f00b0979f000700370061fd2000f6
:101260000100500000004000a1fc20006100780057
:10127000cf98970001007000c09f9f000a0478007b
:1012800008057800ba4478008900fb0060fd200062
:10129000a90207000000e000f0ff3a00a1c2b3007d
:1012a00081cf54000e003a008f8897000180e9003a
:1012b000808f9f0010007800b09f9f000000e0002a
:1012c00005003d000000ea00b09f9f004f98970086
:1012d0000020a000c09f9f000804e8001000370015
:1012e000b09f9f00880078000000eb0005003700e9
:1012f000f3ff2700830f5000020032006a02b9009a
:101300000400410001047800880078003101fb00ee
:101310000203b100e90f5100f5ff3600b09f9f00b6
:10132000e0c2b300984f1000020032000080eb00d2
:1013300019003700a0c2b300d84f100007003a00d0
:101340008f8897000180e900808f9f00100078004f
:10135000909f9f000804e800100037000000eb0099
:10136000909f9f008800780005003700f3ff27005a
:10137000830f5000020032006a02b90004004100ed
:1013800001047800880078003101fb000203b100fd
:10139000e90f5100f5ff3600909f9f0098447800b8
:1013a0008900fb0020fc2000630207000000e00031
:1013b000020032000804e800010037008044eb001e
:1013c000a97f9f0080c6b30080cf540006003a007a
:1013d00098cf140010003a0066405000a07f9f0094
:1013e0000804e8000c003700c0c6b30080cf5400ea
:1013f00009003a0098cf140007003a006740400007
:10140000d84f100002003a006e4050000100370033
:1014100010c7b300a07f9f001801fb00c3fb2f0083
:101420008f81410001f92f008f80400020f92f00ab
:101430000f004000150007000000e00009003a001e
:10144000c1fb2f008f80400020f92f000f004000cb
:10145000e60307000000e000020035000805e80090
:101460005aff37000080eb004f05be004f04be005e
:101470000080fa0000000600030278008201780074
:1014800001017800818a200040ff3700889fbe005c
:101490008a1f7800000478000100780082407800fc
:1014a000e2c6b30082cf5000c000320015003c00fd
:1014b0006b41510082cf5000240032000a003c00f2
:1014c0007041510082cf5000f90032006541410067
:1014d00082cf50006800320050c2b30080cf50006d
:1014e00028013a002401370042c6b30082cf5000e1
:1014f0001b0032006541410082cf500021013a00bb
:101500001700370032c7b30082cf5000e800320026
:1015100007003c006441510082cf50005600320069
:101520000241e80082cf500016013a00d200370095
:1015300052c7b30082cf50004f00320063414100d8
:1015400082cf50000f013a004b0037009080e90035
:1015500001087800280890009140780007013700c2
:1015600008699000c4c6b300844f510007003a00d8
:101570001002780064015200020878001202be00d6
:101580004fabde00860378001100370014c7b300ac
:10159000844f510003003200a4c6b300844f5100b1
:1015a00006003a0010027800680152000208780034
:1015b0003202be002203be00050037001081e900a0
:1015c0000208780012027800cfa2de00612bb90079
:1015d000049cbe000694be000868900082c6b3005a
:1015e000824f50000d00320022c6b300824f5000df
:1015f00004003a000402fb00cfa2de00612bb90018
:101600000800370042c7b300824f50000300320089
:1016100066414100824f500004003a00cfa2de0034
:10162000612bb900049cbe000694be003802be00c7
:101630002803be0028089000d2c2b300e00f520079
:10164000e08f5a00e00f5b00e08f5b000800350080
:10165000381190000218a30002003200b2c2b30099
:10166000030037000208a3004c00320002c2b3009e
:10167000827178004700370008699000c4c6b30043
:10168000844f510006003a001002780064015200b5
:10169000020878001202be006033b8001100370063
:1016a00014c7b300844f510003003200a4c6b30036
:1016b000844f510006003a00100278006801520081
:1016c000020878003202be002203be000500370087
:1016d0001081e90002087800120278008002eb0015
:1016e0006033b800049cbe000694be0008689000f9
:1016f00082c6b300824f50000d00320022c6b300f4
:10170000824f500004003a000482fb008002eb008c
:101710006033b8000800370042c7b300824f500062
:101720000300320066414100824f500004003a003d
:101730008002eb006033b800049cbe000694be003b
:10174000381090000038a300140032003802be00a8
:101750002803be00e00f5200e08f5a00e00f5b004c
:10176000e08f5b000d00320080c7b30080cf5000d7
:101770000300320080c5b30080cf500007003a005c
:101780002808900002c3b300827178000000e800ce
:10179000817178000000e800200c98002808900073
:1017a00080814100730498003e0037000869900072
:1017b000c3c6b3009080e900834f5100220032007d
:1017c0000a003c00e4c15100834f51002500320063
:1017d00083c1e800834f510013003200e8c151007b
:1017e000834f51001e003a000a00370043c7b30080
:1017f000834f51001b003200e6c14100834f51006e
:1018000018003200e9c15100834f510014003a0022
:101810000500370001087800110078002864900066
:10182000084878005f003700010878001100780050
:1018300018129000cfa2de00612bb9000498be0000
:101840000690be00570037000108780011007800ac
:1018500018119000cf91de000288be0051003700c1
:101860009080e900010878001100780018149000b9
:10187000080878004b0037009080e90001087800e4
:1018800011027800cfa2de00612bb900049cbe00db
:101890000694be00280890008081410073049800df
:1018a00081c7b30008007800a10107003d003700a0
:1018b0000869900051c6b300814f51001a003a00e8
:1018c00010017800e4005100010878001100be000a
:1018d000000c9800110c9800881190000300e000a3
:1018e00007003d008081eb000001eb003c05070094
:1018f0000001be00880890008100510008003700f8
:101900000001eb0036050700008170000300320083
:1019100008099000820050000100370088109000f4
:10192000410c98001f0037009080e9000108780002
:10193000110578007a049800881490000900e000ee
:1019400004003d000a007800f3fc070080047800e2
:1019500007003700090178008000eb000a007800da
:10196000eb0007000000e000010032008a04500094
:10197000490c98000b00370028089000817178000e
:101980000600370028089000808141000104e00033
:1019900001003a0051c2b300814978000000e8001c
:1019a000200c98000000eb004f0578004f04be00ab
:1019b00000000600889fbe008a1f7800000478009f
:1019c0000800e0000d003a0088d8200070054400af
:1019d0008004eb00580078000000e00004003200b2
:1019e000f4ff07000000e00001003d008084eb00f0
:1019f0008a0f5400f7ff3a0025003700000022004c
:101a0000180060008004eb0021003200a804900060
:101a10000f00370009015100384090000000fb0022
:101a20008900780002fc07000000e00007003c008d
:101a3000280090004004980060049800500c980022
:101a40001890a0008084eb001100370080844400cf
:101a500048019000828f5400eeff3900280090006a
:101a6000400498009800780002c0200002816000c5
:101a700001003a003800900001e8a30002003200a3
:101a80006004980001003700500c98008004eb00bf
:101a9000090078004f0578004f04be0000000600e2
:101aa000889fbe008a9fbe008004780001047800f1
:101ab0002c003700c800900068009000808f500014
:101ac0000400390008007800d20007000000e000a0
:101ad0003700350000402000180060000900320087
:101ae000a100200009007800b00007008005780000
:101af0000b00e00003003200618514000a854500f8
:101b0000040037000900780083fc07000005780016
:101b10008005eb0048009000e800900080805000b5
:101b20008a8f500002003100010578008005eb002b
:101b30000a017800890078004cfc070048009000fa
:101b40000a004000400498000b00e000040032004e
:101b50000800780097ff07000000e00014003a003a
:101b60008a8444001904e000d2ff3a00008020007b
:101b70001800600006003200080078008dff0700a2
:101b8000800078000080eb000100e00009003a00ce
:101b900001c02000988060000000eb0005003200ca
:101ba00048009000600498000000eb00010037003e
:101bb0000080eb004f05be004f04be000000060091
:101bc000889fbe008a9fbe008c9fbe008e1f78003b
:101bd0000006780001047800020078008304780091
:101be0000881b900020778000200e00042003200dc
:101bf0000800e0004100320082057800c900900032
:101c000069009000808f50000400390009007800be
:101c1000800007000000e00029003500004020009f
:101c2000190060000a0032000b017800a1002000ba
:101c30000c00780036000700800678000d00e000f8
:101c400006003200610516000a85460004003700d0
:101c50000b0578008006eb00010037000b057800cb
:101c600049009000e9009000808050008a8f500069
:101c700002003100010578008006eb000a017800bf
:101c80008c007800f9fb07008a8555004900900018
:101c90000a004000c00498000d00e000040032007b
:101ca0000900780043ff07000000e00004003a004c
:101cb0000b00e000020032000a064600cfff3700aa
:101cc0000080200019006000020032000900780046
:101cd00038ff070000c02000190060000200320039
:101ce00049009000e00498008b055700110009009e
:101cf0008885d800010037000000eb004f0778000e
:101d00004f06be004f05be004f04be000000060097
:101d100003003700b0cf1000050032000201e900d7
:101d2000800178000200e000faff3a0000000500a0
:101d30000300780000000600020037000304e00002
:101d4000060032000001780002007800b0417800ff
:101d500081cf5100f9ff3a00010037000001eb008c
:101d6000020078000000060000017800070037003c
:101d700086cf520002003a000080510000000600a9
:101d8000344378000604e000f9ff3a00820178004d
:101d9000b24278000504e00002003200010278003f
:101da000f7ff370000805100000006000001eb0043
:101db00000027800b041780081cf510001003a0064
:101dc000040178000304e000f9ff3a000200780003
:101dd000000006000001780008003700810278004a
:101de000354378000604e00002003a00008051000c
:101df00000000600864f5200f9ff3a008201780089
:101e0000324278000404e000f4ff3a000080510000
:101e100000000600889fbe008a1f7800000478003a
:101e2000c8009000680190000000eb00828f500015
:101e30003c003900180078002200290002016000ef
:101e4000e20f510007003200012020000000e000f6
:101e50000100350001202400008c70000080eb00a0
:101e6000300037000200260002006000820f5000a0
:101e700009003a0038009000808f500006003900b9
:101e800008007800cbfe0700800078000080eb009f
:101e90000100e00023003a001805780000c020008f
:101ea0000000650018003a00a804900060022000bd
:101eb00008004000808f540013003a0000202000ea
:101ec00066030700200498000000e00005003a00c7
:101ed00029049800490498008904e800390498000e
:101ee000080037000a60a0000a0c7800400498003f
:101ef000012020008080400031049800400c9800b0
:101f0000500c9800830207002800900050049800ad
:101f1000380090006004980000002600180c700043
:101f20000000eb004f0578004f04be0000000600e3
:101f3000fc874700889fbe008a9fbe008c9fbe0022
:101f40008e1f78000006780080c5b30080cf500057
:101f50000a0032007740400080cf50000a00320073
:101f60006940400080cf50000b00320010f7200085
:101f700080bf9f00ae0020000a00370002f620005c
:101f800082bf9f000600370013f7200083bf9f0029
:101f90008e0020000300370014f7200084bf9f004c
:101fa0000e0120003c02be002c03be000605be0050
:101fb0000404be0040c6b30080cf500003003200ce
:101fc0006540400080cf50000b003a00e00f520007
:101fd000e08f5a00e00f5b00e08f5b0006003d00e1
:101fe0006000b8006011b8000404500085845800f7
:101ff0000605590087855900e80f57000400320094
:1020000040002000f00f570038003a000100370070
:1020100030002000e00f5400e08f5c00e00f5d0016
:10202000e08f5d0004003a008c1090008d012000cc
:102030000100e000060032008e00e90088806000a8
:102040008fba9700e5c07800f1ef9f007d01200076
:10205000800078008100e900050033008b05d10085
:102060000a85d3008984d3000884d300f9ff3700a0
:10207000089ebe000a96be00120037008d06e900d9
:102080008e00e900848060000fb99700e2c17800fb
:1020900082fd2f000f01410003f17e0080007800d7
:1020a0008100e900050033008783d1000683d30057
:1020b0008582d3000482d300f9ff3700049ebe005e
:1020c0000696be003c02be002c03be00e00f52008c
:1020d000e08f5a00e00f5b00e08f5b008b00340064
:1020e0000d00e000e5ff3c00880037000c68900020
:1020f00081c6b300814f50000b00320006003c0047
:102100000004e00008003200e6c05000814f50009b
:102110004e003a0004003700c1c6b300814f5000a2
:102120004a003a00210037000800e00004003a00ad
:102130000c1090008d0120000000e000060032002d
:10214000110009000e84d8000fb99700e2c0780092
:10215000f1ef9f007d012000110009000e84d800de
:102160000a003700110009000e04d8008d06e900ae
:102170000e81b900020454008fb8970061417c00c1
:1021800081fd2f008f80400082f07e0000047800e7
:102190000800e000020032000d00e000f1ff3c000a
:1021a000cfc4de00614db90025003700e00f5400b8
:1021b000e08f5c0004003a000c1090008d012000bc
:1021c0000000e000070032006171b9000800be00a5
:1021d0001e0307008fb99700e3417800f3ef9f00db
:1021e0007d0120006171b9000800be008cfa070073
:1021f0000b0037006171b9000800be0079fa0700d2
:102200008d06e90000f1b900020454000fba9700ee
:10221000e4427c0084fd2f000f02420005f27e00a4
:102220000004be00e00f5000e08f580002003200b2
:102230000d00e000efff3c004fcdde008a05780086
:10224000089ebe000a96be0030003700e00f540022
:10225000e08f5c00e00f5d00e08f5d0004003a005d
:102260000c1090008d0120000000e00009003200f9
:102270006172b900612bb9000800be000a01be00fe
:102280009b0307000fba970064427800f4ef9f00a9
:102290007d0120006172b900612bb9000800be0009
:1022a0000a01be008b0307000d0037006172b90000
:1022b000612bb9000800be000a01be0090030700b0
:1022c0008d06e90000f2b900040454008fba9700ab
:1022d00065427c0085fd2f008f82420084f27e00e3
:1022e000009ebe000296be003c04be002c05be004f
:1022f000e00f5400e08f5c00e00f5d00e08f5d00b8
:10230000020034000d00e000e8ff3c00e80f570039
:1023100010003a003c1090000038a3000d0032007d
:10232000f78f560006003e0085fd2f008f82420089
:10233000e5c07e0000c3b30080cf5000050032002e
:102340008d06e90002c3b30081fd2f008f8040009d
:1023500082f07e0078811600420e98007c0090008a
:1023600083fd2f008f8141008d8041003ffa0700df
:102370004c0890008c109000810f500006003d002a
:1023800000805000300e98003c1090000040a100ea
:10239000301698000f0037000100e0000d003d00ee
:1023a000bc109000f4806000f08f500009003a00eb
:1023b0002c119000ac089000810051003c09900065
:1023c00082805000008050004240a900010034008b
:1023d000300e98004f0778004f06be004f05be0034
:1023e0004f04be00cf01b100000006000400fa0057
:1023f000889fbe008a9fbe008c1f78000004780072
:1024000001067800a81490002808900080845400e9
:10241000380890008084540048089000808454005c
:10242000580890008084540068089000808454000c
:1024300078089000808454000002220090bf9f0022
:1024400000032300a0bf9f00381090000028a300c5
:1024500015003a000900e000130034000905780077
:102460008a057800e20f5500010036002b0020009d
:10247000c80190000b017800ee80570068009000c2
:1024800003000100600498000000e000aa00320090
:10249000181090000b004000101498000b05550018
:1024a0004240a900eeff3c00280990000200e00035
:1024b0000c003400c80190008c0078006800900087
:1024c00003000100600498008080eb000000e00041
:1024d0009a00320098109000280890000080400078
:1024e00010149800380d90000a00e000110034002c
:1024f0008a057800e20f5500010036002b0020000d
:10250000c80190000b017800ec8057006800900033
:1025100003000100600498000000e0008600320023
:10252000181090000b004000101498000b05550087
:10253000edff370008699000c808900050c6b3004e
:10254000804f510008003a000100e00015003400ff
:1025500058029000080990009809900068009000c7
:1025600004000100070037000100e0000d00340006
:10257000c801900001017800f80090006800900008
:1025800003000100600498008080eb000000e00080
:102590006a003200981090004808900000804000c7
:1025a00010149800580d90000a00e000110034004b
:1025b0008a057800e20f5500010036002b0020004c
:1025c000c80190000b017800ec8057006800900073
:1025d00003000100600498000000e0005600320093
:1025e000181090000b004000101498000b055500c7
:1025f000edff3700086990006808900051c6b300ed
:10260000814f51000d003a000000e0001c00340032
:1026100078019000c8089000010141006111b800e4
:10262000828fd2008381d20058029000800078000f
:102630006800900004000100090037000000e0007d
:102640000f00340078019000c8089000810041001c
:10265000c8019000000178006800900003000100ac
:10266000600498008080eb000000e000330032003e
:1026700098109000680890000080400010149800a6
:10268000780d90000a00e000110034008a057800ff
:10269000e20f5500010036002b002000c801900019
:1026a0000b017800ec8057006800900003000100e7
:1026b000600498000000e0001f0032001810900035
:1026c0000b004000101498000b055500edff37007b
:1026d000381090008000eb000028a30017003200a3
:1026e0000900e0001500340009057800e28f54006d
:1026f000010036002a002000c80190000a0178007d
:10270000ee8057006800900003000100600498000c
:102710000000e00008003200181090000a0040009d
:10272000101498008a8454004240a900eeff3c0037
:102730008000eb00010037008080eb000100780092
:102740004f0678004f05be004f04be000080fa001f
:10275000000006000108780000000600e687470038
:10276000889fbe008a9fbe008c9fbe008e1f78008f
:1027700082bf9f0004047800029ab900f4b79f005a
:102780000400e000590032000fb997000200e00099
:10279000570032000006be0004077800c800900011
:1027a00068009000808f5000040039000800780015
:1027b00098fd07000000e0003b00350000402000cd
:1027c000180060000a0032008e017800a20020008c
:1027d0000c00be00820107000005be0000807500ed
:1027e000070032008c0455008904e800050037001a
:1027f0008e0478000a0020000b0020000100370042
:102800008e0478004801900068009000020050009b
:10281000890f500003003100800478000a00200076
:102820000b0020006111b800828fd2008381d2009a
:10283000090278000c00be0040010700090757009c
:102840004800900009004000400498000a85750087
:10285000040032000800780056fc07000000e00089
:1028600011003a000e00e0000f0032006148b8008d
:10287000808fd2008180d2000000780000f0a1009b
:102880008c01d0000001d000028641004220a80047
:1028900081864e004200a9004220ae004200a800fe
:1028a0000c86d300bdff37000080200018006000b8
:1028b00002003200080078003efc070000c0200043
:1028c0001800600002003200c80190006304980004
:1028d0007fb097000e0750000fb997001100090054
:1028e0000287d80080017800010037008001eb00ea
:1028f000030078004f0778004f06be004f05be006a
:102900004f04be006f00b10000000600c05221005d
:1029100061003700881f7800e80621001804e000f5
:1029200003003a00f9ff070020c0b300004c780014
:102930004f04780000000600889fbe000004780065
:10294000080078001bfc07008004780000042000c9
:102950001800600002003200280090005a000700b2
:102960000000eb0020049800384090000004e000d4
:10297000050035000000fb00de1307000000e0004a
:10298000010032008084eb00181090000000e0008d
:102990000800320068f807000000e0000100320083
:1029a0008084eb0018109000470007000000eb0047
:1029b0001014980000082000180060001500320074
:1029c0000001eb006000b800a3d820000202d00094
:1029d00063027a00880f520005003a0000004000b0
:1029e00081804800008041000008eb0006003700ad
:1029f00061004000e08048000201e800e80f50005c
:102a0000e08f5800f0ff3a00080078002e00070021
:102a10000e003700000c780000c0eb003044980036
:102a20006002200008004000200498004004980044
:102a300050049800400c980060049800500c9800d6
:102a40007004980076004400000c9800090078009b
:102a50004f04be0000000600881f78000004eb0051
:102a60006140b800e2ff2f00f3ff2f00fa000700db
:102a700082d92000620078000000e00001003200ee
:102a8000adff07000804e800e80f5400f4ff3a0027
:102a90004f04780000000600010020000100e00063
:102aa00008003200010080000100e0000500320053
:102ab0008100e900010088008100d0000200800050
:102ac00000b17800000006000000e0002f00320096
:102ad000c0017800e38f51002c0036000308a300ea
:102ae0002a003a00418380000100e0000200320029
:102af000810f5000040031001100980040838800cd
:102b00001600370082007800110190000200e000fa
:102b100002003200800f5100faff390011027800e4
:102b200084824000850f500018003900808f5200c9
:102b300003003a00830842000100780007003700d4
:102b40000200e0000300320083014000830f5100c7
:102b50000e0039001200980090009800900090003c
:102b60000100e0000900320010014000828f500097
:102b700006003a00620621000009eb00100178000f
:102b8000110841009100900011009800000006001b
:102b9000889fbe0000047800318380000100e000bf
:102ba00002003200010078000d00370041838000f0
:102bb0008006210004003700910f540025003600e4
:102bc0000180e800910090000100e000faff3a0067
:102bd00010003700920f54001e0036000280e800fb
:102be000100178000200e000faff3a0011017800bd
:102bf000418380008006210004003700910f5400bb
:102c0000140036000180e80091009000828f50008f
:102c1000faff3a0089838000888f54000100310058
:102c20008804780009007800360007000000e00002
:102c300004003a00888f5400050032008904d10056
:102c4000f5ff3700091878009fff0700d2ff370013
:102c50000000eb004f04be0000000600881f780053
:102c6000630440000800a1008000eb00800f5400c6
:102c700021003600e30f540001003e004800200010
:102c800008007800c2ff07008000eb000000e000b1
:102c900019003200900078009101780064815100a1
:102ca000880f5100030031001101900002087800e4
:102cb0000700370008814000020878009101900069
:102cc0001301980010017800110914008808780099
:102cd000100178000000eb000200e0000400320068
:102ce000920190000300e000010032000280e80041
:102cf000308388008180e800010078004f0478006c
:102d000000000600800078000000eb000100e000f9
:102d1000050034000100780090f70700e10f400043
:102d200001003a000000eb000000060000c0da00dd
:102d30000000060000c0da00000006003400f800c1
:102d40003200f8000203be008202700085027200a9
:102d500002f0a6008301e800a301880000f0a600ad
:102d60008100e800910188001500b2000c003200db
:102d7000104978000402e9001500320061014100a9
:102d8000020039003420ec000200280061004000fd
:102d9000f7ff39003220ec0000002800f4ff370074
:102da000100978000482e900090032006201410044
:102db000020039003420ec000200280062004000cc
:102dc000f7ff39003220ec0000002800f4ff370044
:102dd0003200f9003400f9000601be0000000600d0
:102de0000300e00007003200950180009101880097
:102df00010427800950188000402fb00820f520007
:102e0000110032008301e9009501800091018800e2
:102e100010427800950188000404e00008003200a8
:102e2000000278001000b00000026a004260af00ab
:102e300000f0a0000482d2000180b000e8ff37005b
:102e400000002000010020000000060074f70700c9
:102e50000400be0000000600020ab900001bb90011
:102e60000200b8008100420081004300000006001b
:102e7000889fbe008a9fbe0030044200b0844a0092
:102e800030054b0090854b006000b1000898be00f3
:102e90000a90be000440e10005c8e10006d0e10050
:102ea00007d8e10002003100680040001008e80087
:102eb0004f05be004f04be0000000600889fbe0004
:102ec0008a9fbe003004be002005be0004185400d6
:102ed00005985c0006185d0007985d001100200051
:102ee0000440e10005c8e10006d0e10007d8e10098
:102ef000010039008000eb00108810004f05be0073
:102f00004f04be00000006001200fa00889fbe00b9
:102f10008a9fbe008c9fbe00e0b79f00f1b79f0064
:102f200082bf9f0093bf9f000605be000404be0041
:102f30000000eb00d0b79f00c0b79f00b0b79f0064
:102f4000a0b79f0090b79f00000678005fb1970080
:102f5000cfb09700820141003fb097000200e0002f
:102f600004003d00370007007e805700c0ff0700c7
:102f700003003700330007007e805700cfff0700b3
:102f8000dfb697000d00e0000c0035006fb297002f
:102f9000ffb297000fbb97009fbb97001000200067
:102fa000010020006011b8000002720081827200ee
:102fb00002037300838373001b0007000c06e80004
:102fc00001042000810f5600e0ff3a000d00e000f0
:102fd00004003d000802be000a03be007e805700c8
:102fe000a3ff07005fa897000000e00005003a007b
:102ff0001fb29700afb297003fb39700cfb39700cf
:10300000090007006fb09700ffb097000fb9970055
:103010009fb997004f06be004f05be004f04be008b
:103020000080fa0000000600010007000000060012
:10303000a4b79f00b5b79f00c6b79f00d7b79f0042
:10304000000006004f09de0082817100b3b79f00c7
:103050004f01de008180400082807000a1b79f0098
:103060008fb097004f09de000000400002007000a2
:1030700090b79f007fa897004f01de00818040003d
:103080008280700081b79f000d0007004f3ade007c
:103090000000400004007000f0af9f00080007002f
:1030a0000402420085824a0006034b0087834b00de
:1030b000dfff07000802be000a03be000000060092
:1030c0002fb29700bfb297004fb39700dfb39700be
:1030d00000000600881f780018002000881f780074
:1030e00089ff07008f87e9004f0478000000060081
:1030f000801feb0084ff07008f87e90000000600b7
:10310000889fbe008a9fbe00e00f5000e08f5800ed
:10311000e00f5900e08f59000c003d006044b800fa
:103120006055b8000000540081805c0002015d0021
:1031300083815d00180020001500070008003d0095
:10314000180007000004eb00050037000004eb0046
:103150000f00070002003d001200070018002000c9
:10316000dcff07000800e000060032006022b80023
:103170006033b8000000520081805a0002015b00f9
:1031800083815b004f05be004f04be0000000600b7
:10319000e00f5200e08f5a00e00f5b00e08f5b0011
:1031a000000006006044b8006055b80004025400f6
:1031b00085825c0006035d0087835d0000000600d9
:1031c000889fbe008a9fbe008c1f7800e00f5000d1
:1031d000e08f5800e00f5900e08f59000d003d00ce
:1031e0006044b8006055b8000000540081805c0065
:1031f00002015d0083815d001c0020000820e100c9
:1032000009a8e1000ab0e1000bb8e1000d003d00a3
:10321000080037000006eb00e00f5200e08f5a0074
:10322000e00f5b00e08f5b0006003d006044b800eb
:103230006055b8000402540085825c0006035d00fe
:1032400087835d00aaff07000c00e0000600320043
:103250006022b8006033b8000000520081805a003c
:1032600002015b0083815b004f0678004f05be00c2
:083270004f04be00000006003f
:020000040000fa
:1032780067650000745f00006d6100006300000076
:10328800636f00006e6e000065630000745f0000ed
:10329800746f000000620000726f00006b65000030
:1032a800725f000064690000736300006f6e0000c5
:1032b8006e65000063740000007700006966000016
:1032c800695f000064690000736300006f6e0000ae
:1032d8006e650000637400000073000075620000f2
:1032e8007363000072690000626500005f7400008b
:1032f8006f00000070750000626c000069730000c8
:10330800685f0000746f0000006e000065770000c1
:103318005f7300006f6300006b65000074000000bd
:10332800706900006e670000004d00004143000016
:103338002072000065740000726900006576000064
:10334800616c000020660000616900006c65000087
:10335800642100000d0a0000002500003032000042
:10336800583a000025300000325800003a25000085
:1033780030320000583a0000253000003258000072
:103388003a25000030320000583a0000253000008d
:10339800325800000d0a0000002d00006e000000e9
:1033a8000d0a00004e650000774300006f6e0000b4
:1033b8000d0a0000000d00000a45000072720000ae
:1033c8006f720000436f00006e6e00000d0a00006f
:1033d800000d00000a4300006f6e00006e650000db
:1033e80063740000656400002077000069740000c1
:1033f80068200000737500006363000065730000b7
:10340800730d00000a0000000d0a0000575200006a
:103418004f4e0000472000006172000067750000f1
:103428006d6500006e740000730d00000a00000056
:103438000d0a0000537500006273000063720000fb
:1034480069620000650d00000a0000000d0a000016
:1034580070750000626c000069730000680d000060
:103468000a0000000d0a0000504900004e47000005
:1034780020250000730d00000a00000050690000bc
:103488006e670000696e0000672000005b25000081
:10349800735d000020770000697400006820000058
:1034a800545400004c3d0000256400000d0a000043
:1034b800000a00004e65000077200000736f0000ce
:1034c800636b00006574000020690000703a00001a
:1034d80020250000730a0000000a00004572000061
:1034e800726f0000722000006372000065610000c6
:1034f800746900006e670000207300006f630000ad
:103508006b650000740a0000000a000045720000a4
:10351800726f0000722000006174000020730000c8
:103528006f6300006b65000074200000636f00008b
:103538006e6e000065630000746900006f6e000025
:103548000a0000000a44000069730000636f00006d
:103558006e6e000065630000742000006672000053
:103568006f6d000020620000726f00006b65000044
:10357800720a0000000a000044690000736300003a
:103588006f6e00006e650000637400002066000026
:10359800726f00006d2000006e65000074770000f7
:1035a8006f7200006b0a0000002000000a0900008a
:1035b8000d070000000d00000a430000616c0000c8
:1035c8006c460000756e000063740000696f0000af
:1035d8006e0d00000a0000000d0a00004e6f00008a
:1035e8005375000063680000467500006e630000b4
:1035f800746900006f6e0000466f0000756e000071
:10360800640d00000a0000000a4300006f75000006
:103618006c6400006e27000074200000636f0000d7
:103628006e6e00006563000074200000746f000077
:103638002064000065660000617500006c7400007d
:1036480020610000636300006573000073200000c0
:10365800706f0000696e0000740000000a500000de
:103668006c6500006173000065200000747900003b
:1036780070650000206e000065770000207700006c
:10368800696600006920000063720000656400003c
:10369800656e000074690000616c00007300000032
:1036a8000d0a0000436f00006e6e000065630000a5
:1036b800746900006e670000207400006f2000002d
:1036c80074680000652000006c61000073740000dd
:1036d80020410000500d00000a0000000a500000c0
:1036e8006c650000617300006520000074790000bb
:1036f80070650000206e0000657700002063000000
:103708006f6e00006e65000063740000696f000052
:103718006e2000006372000065640000656e0000a2
:1037280074690000616c0000730a0000005000001a
:10373800696e0000676900006e670000205b00008a
:10374800257300005d2000007769000074680000a0
:1037580020540000544c00003d250000640d00007a
:103768000a0000000d0a000045720000726f000098
:103778007220000061740000207300006f63000075
:103788006b65000074200000636f00006e6e00001f
:1037980065630000746900006f6e00000d0a000088
:1037a800000d00000a53000075620000616300000c
:1037b8006b200000726500006365000069760000f8
:1037c800656400000d0a0000006400000064000049
:1037d800756d00006d790000000a00004d51000071
:1037e8005454000020650000727200006f720000df
:1037f80000000000506900006e67000020630000b0
:10380800616c00006c650000640a00000052000052
:10381800455000004c59000020520000454300006c
:103828004549000056450000442000005749000063
:103838005448000020520000545400003d2000006d
:10384800256c0000756d0000730d00000a00000073
:103858004445000053540000494e00004154000004
:10386800494f00004e200000554e00005245000010
:1038780041430000480d000000540000494d00007d
:10388800454f0000555400002045000052520000ea
:103898004f5200000d0000000a500000696e000041
:1038a80067200000636100006c6c00006564000024
:1038b8000a000000706900006e6700005f63000086
:1038c800623a000020520000657000006c79000028
:1038d800207700006974000068200000525400003e
:1038e800543d0000202500006c7500006d73000039
:1038f8000d0a000000700000696e0000675f00009c
:10390800636200003a200000504900004e47000062
:103918005f450000525200005f440000455300001c
:10392800545f0000554e000052450000414300001e
:10393800480d000000700000696e0000675f00001d
:10394800636200003a200000504900004e47000022
:103958005f450000525200005f540000494d0000ce
:10396800454f0000555400000d0000006d63000035
:10397800687000002f6900006f7400002f65000058
:10398800766500006e740000730000006d6300002f
:103998006870000020700000617900006c6f000002
:1039a80061640000006d000063680000702f000073
:1039b800696f0000742f0000636f00006e660000de
:1039c800696700000000000000000000000000001f
:1039d80000000000000000000000000000000000df
:1039e80000000000000000000000000000000000cf
:1039f80000000000000000000000000000000000bf
:103a080000000000000000000000000000000000ae
:103a1800000000000000000000000000000000009e
:103a2800000000000000000000000000000000008e
:103a3800000000000000000000000000000000007e
:103a4800000000000000000000000000000000006e
:103a5800000000000000000000000000000000005e
:103a6800000000000000000000000000006d0000e1
:103a780063680000707300006b6100006c6b0000ed
:103a88006a6600006c6b00003435000036000000e8
:103a98006d690000637200006f63000068690000d0
:103aa800700000006c690000676800007400000086
:103ab800256c0000640a00000d000000636f000020
:103ac8006d6d0000616e000064730000000a000064
:103ad800546f00006f200000636f00006c640000ea
:103ae800000a0000546f00006f200000686f00009b
:103af800740000000a5400006f6f0000206d000081
:103b080075630000682000006c69000067680000a9
:103b1800740000000a5400006f6f0000206c000061
:103b280069740000746c0000652000006c69000076
:103b380067680000740000004d6f0000746f00009b
:103b4800722000006e6f00007420000041750000b4
:103b5800746f00006d61000074650000640a000065
:103b6800004d00006f7400006f72000020410000db
:103b7800757400006f6d00006174000065640000da
:103b88000a0000006d6f0000746f0000725600009c
:103b9800616c00000000000054720000616e0000bb
:103ba800736d0000697400002074000065730000e4
:103bb800740a000000520000656300006569000097
:103bc800766500002074000065730000743a0000f8
:103bd800205400007970000065200000612000007a
:103be8006d650000737300006167000065200000c8
:103bf80074680000656e00002070000072650000a7
:103c080073730000206500006e7400006572000088
:103c1800202800006d610000782000003136000087
:103c2800206300006861000072730000293a0000f8
:103c3800005900006f7500002074000079700000c2
:103c4800656400003a200000000000000d0a000032
:103c5800556e000073750000636300006573000013
:103c680073660000756c0000206900006e69000032
:103c780074690000616c0000697a000061740000da
:103c8800696f00006e2000006f660000207700005a
:103c9800692d000066690000206d00006f64000057
:103ca800756c000065210000212100000d0a00004c
:103cb8000044000072690000766500007220000070
:103cc800696e000069740000696100006c69000099
:103cd8007a610000746900006f6e000020730000b4
:103ce800756300006365000073730000667500006b
:103cf8006c0d00000a0000000d0a0000436f000070
:103d08006e6e000065630000746900006f6e00004d
:103d18002073000075630000636500007373000082
:103d2800667500006c0d00000a0000000d0a000016
:103d3800436f0000756c0000646e0000277400007b
:103d4800206300006f6e00006e6500006374000061
:103d5800207400006f200000415000000d0a000090
:103d6800000d00000a44000069730000636f000042
:103d78006e6e00006563000074650000642000003a
:103d88007769000074680000207300007563000004
:103d980063650000737300000d0a00000000000056
:103da8000a5300006f6300006b6500007443000055
:103db8006f6e00006e6500006374000065640000ab
:103dc8000a0000000d0a000045720000726f000032
:103dd8007220000061740000207300006f6300000f
:103de8006b65000074200000636f00006e6e0000b9
:103df80065630000740d00000a000000be8d00001d
:103e0800829b00001c8e0000368e0000688e000029
:103e1800968e0000c68e0000d28e0000f88e00003c
:103e2800dc8e0000d47d0000007e0000407e000093
:103e38002a7e0000987d0000b67d0000747e000098
:103e4800627d0000636c0000696500006e7400000c
:103e58004b4f000044650000313200003300000081
:103e6800256c0000642000002d3e000020000000aa
:103e78004e5500004c4c000000000000b24200000b
:103e8800c033000098790000987900009879000004
:103e98009879000098790000cfff0000ffff00002c
:103ea80000c9000000e80000240000000000000035
:103eb800525c0000200100000f000000000000001c
:103ec8002001000000000000000000006d690000f3
:103ed800637200006f6300006869000070000000f2
:020000040000fa
:103ee8000000fa001e08a8006000b8000080fa0070
:103ef800000006000000fa001e28a800507180008b
:103f08004800de0062718000f10f2000810061002e
:103f1800c808dd0001007000c800dd004800de00b0
:103f2800008070000000e9008000eb00823e200065
:103f38000289b900020178006002b90084017800a2
:103f480003014100833e20000300b8000101410045
:103f5800820078000080fa00000006000000fa00e5
:103f68001e48a80000532700010020000080fa0026
:103f7800000006000000fa001e68a8006000b800f3
:103f88000080fa00000006000000fa001e88a80061
:103f98006000b8000080fa00000006000000fa0087
:103fa8002628ef000080fa00000006000000fa0052
:103fb800304180000080fa00000006000400fa008a
:103fc800100798000000eb00000f7800d2012000d5
:103fd8008000eb00e0e1200029f30700f170800089
:103fe800f0f02f00008060000040a000f070880012
:103ff800f07080000030a100f0708800f17080003f
:1040080090ff2f0000806000f0708800f070800042
:104018000000a100f070880030e220008040eb0032
:104028000148780040e2200041c0b3000148780010
:1040380050e22000d1c4b3000148780060e22000bb
:1040480011c5b3000148780070e2200041c5b300f3
:104058000148780080e2200041c5b300014878009b
:1040680090e2200041c0b300014878001e00900093
:10407800f05090008180fb00005890000080fb0009
:104088004800dd00008070000000e00009003a00f0
:104098001e009000b05090008180fb0040509000be
:1040a8000080fb004800dd00008070000000e00098
:1040b80004003200a0e2200021ccb30001487800bf
:1040c80003003700a0e2200021c0b30001487800b7
:1040d8001e009000d04890008180fb00604890004e
:1040e8000080fb004800dd0000807000c800dd0093
:1040f8004800de0000807000f10f200081006000a1
:10410800c808dd0053718000f20f200002816100b1
:104118008280700051718800c800de00f00f200016
:10412800008060006271800001f02f008100610052
:1041380001007000607188001e009000905090008f
:104148008180fb00205090000080fb004800dd00cb
:1041580000807000f10f200081006000c808dd00b9
:1041680073718000f20f200002816100828070006c
:1041780071718800c800de00f00f20000080600028
:104188008271800001f02f00810061000100700041
:1041980080718800707180004800de0082718000a4
:1041a800f10f200081006100c808dd0001007000e7
:1041b800d7f20700f10f200081006000c808dd0079
:1041c80063718000f20f200002816100828070001c
:1041d80061718800c800de00f00f200000806000d8
:1041e8007271800001f02f008100610001007000f1
:1041f80070718800a0e22000104078000044b200ee
:104208000004e0002e0032001e009000905890003c
:104218008180fb00205890000080fb004800dd00f2
:1042280000807000f10f200081006000c808dd00e8
:10423800b3718000f20f200002816100828070005b
:10424800b1718800c800de00f00f20000080600017
:10425800c271800001f02f00810061000100700030
:10426800c07188001e009000f05090008180fb0013
:10427800005890000080fb004800dd0000807000be
:10428800f10f200081006000c808dd00a3718000e4
:10429800f20f20000281610082807000a171880005
:1042a800c800de00f00f200000806000b2718000be
:1042b80001f02f008100610001007000b0718800da
:1042c800a0e220009040780000c8b30000c0600061
:1042d8000004e0002e0032001e009000d050900034
:1042e8008180fb00605090000080fb004800dd00ea
:1042f80000807000f10f200081006000c808dd0018
:1043080093718000f20f20000281610082807000aa
:1043180091718800c800de00f00f20000080600066
:10432800a271800001f02f0081006100010070007f
:10433800a07188001e009000b05090008180fb00a2
:10434800405090000080fb004800dd0000807000b5
:10435800f10f200081006000c808dd008371800033
:10436800f20f200002816100828070008171880054
:10437800c800de00f00f200000806000927180000d
:1043880001f02f0081006100010070009071880029
:10439800a0e220009040780000c8b30000c0600090
:1043a8000004e00009003a00607180004800de0067
:1043b80072718000f10f200081006100c808dd00e3
:1043c80001007000000f780019003700607180004c
:1043d8004800de0072718000f10f2000810061004a
:1043e800c808dd000100700080007800a07180001e
:1043f8004800de00b3718000f20f200002816100e6
:104408004811dd000200700080804000807180004b
:104418004800de0093718000f20f200002816100e5
:104428004811dd000200700000804000640f400069
:104438009e0078006c804000f10f20008100600031
:10444800c808dd00c3718000f20f200002816100fe
:1044580082807000c1718800c800de00f00f200063
:1044680000806000d271800001f02f00810061009f
:1044780001007000d0718800a0e220009040780010
:1044880000c8b30000c060000004e00005003a0066
:10449800a0e22000104078000044b2000004e000d0
:1044a80034003200a07180004800de00b271800044
:1044b800f10f200081006100c808dd0001007000d4
:1044c800c800dd004800de0000807000f10f200009
:1044d80081006000c808dd00a3718000f20f200091
:1044e8000281610082807000a1718800c800de002e
:1044f800f00f200000806000b271800001f02f00f2
:104508008100610001007000b07188008071800036
:104518004800de0092718000f10f200081006100e8
:10452800c808dd0001007000c800dd004800de009a
:1045380000807000f10f200081006000c808dd00d5
:1045480083718000f20f2000028161008280700078
:1045580081718800c800de00f00f20000080600034
:104568009271800001f02f0081006100010070004d
:1045780090718800607180004800de0072718000d0
:10458800f10f200081006100c808dd000100700003
:10459800c800dd004800de0000807000f10f200038
:1045a80081006000c808dd0063718000f20f200000
:1045b800028161008280700061718800c800de009d
:1045c800f00f2000008060007271800001f02f0061
:1045d8008100610001007000707188001a68ef00a6
:1045e8001a08a800100020003041880010c0b3004d
:1045f8000080fa00000006000400fa001007980086
:104608000040eb00004f7800020120008000eb0022
:10461800c0e320009af1070030418000e30f50000a
:10462800ad003a00e1718000f0f02f00808060005a
:104638000003200001007000e07188001e00900057
:104648001080fb004300de00614060000080fb003a
:10465800610060004300dd00e17180000130a100cd
:1046680001007000e07188001e0090001080fb00bf
:104678000000d100634060000080fb006300600020
:1046880000004000e271800091ff2f00810061006e
:1046980001007000e0718800c0e32000104078003d
:1046a800664060000004e00008003a00c0e3200013
:1046b80010407800684060000004e0000300320009
:1046c800e07180000030a100e07188001e009000b9
:1046d8009040780061c060000080fb0061006000cd
:1046e800e17180000100a10001007000e071880004
:1046f8001e009000f04090008180fb000048900070
:104708000080fb004800dd0000807000f10f2000f1
:1047180081006000c808dd0013728000f20f2000dd
:10472800028161008280700011728800c800de007a
:10473800f00f2000008060002272800001f02f003e
:104748008100610001007000207288001e00900046
:10475800f04090008180fb00004890000080fb0042
:104768004800dd000080700069f10700f10f2000ab
:1047780081006000c808dd0003728000f20f20008d
:10478800028161008280700001728800c800de002a
:10479800f00f2000008060001272800001f02f00ee
:1047a8008100610001007000107288001e009000f6
:1047b8001080fb000000d100634060000080fb0017
:1047c8000000e0000b0034001e00900090489000ac
:1047d80050e42000014878001e009000a048900096
:1047e80060e4200001487800507280000080e800f2
:1047f800507288001e009000c04890008180fb0025
:10480800504890000080fb004800dd0000807000e8
:10481800407288001e009000b048900070e42000ac
:104828000148780051728000007280004800de0064
:1048380013728000f20f2000028161004811dd0030
:10484800020070000001780070e420001040780039
:104858000080fb0000004100008040000080e8006c
:1048680050728800007280004800de0012728000da
:10487800f10f200081006100c808dd000100700010
:10488800c800dd004800de0000807000f10f200045
:1048980081006000c808dd0003728000f20f20006c
:1048a800028161008280700001728800c800de0009
:1048b800f00f2000008060001272800001f02f00cd
:1048c8008100610001007000107288001a48a80079
:1048d80010c0b300004f78001e4078000080fa0036
:1048e800000006000400fa00100798000040eb00e2
:1048f800104798000040eb00004f780030418000de
:10490800e30f500094003a00e0408000640060002b
:104918000000e00090003a00e20020008000eb0078
:10492800c0e42000d6f0070061728000f0f02f008c
:10493800008060000070a0006072880060728000d3
:104948000030a100607288006172800090ff2f0023
:10495800008060000010a000607288006072800013
:104968000000a100607288001e009000d0409000f6
:1049780010e52000014878001e009000e0409000fb
:1049880020e52000014878000040eb00104798001f
:10499800680037001e4090008081fb001e40900098
:1049a8000080fb001e0190006500b900000078003f
:1049b8006600400080004100914090008180fb002b
:1049c80000004100204090000080fb004800dd000e
:1049d800008070004801dd00c800de008100710021
:1049e8006519b9000201780020e5200000004100a7
:1049f800f20f20000281600090419000e0c1610048
:104a080002c1710012409800c808de0020419000e1
:104a18006041610081407100214098001e40900073
:104a28008081fb001e4090000080fb001e0190006a
:104a38006500b9000000780068004000800041006f
:104a4800914090008180fb000000410020409000d0
:104a58000080fb004800dd00008070000001780045
:104a68006518b9008000780040e52000008040000b
:104a7800f10f20008100610090419000e0c16100c9
:104a880081c0710011409800c810de0020419000dc
:104a98006041610081407100214098001e409000f3
:104aa8008081fb001e4090000080fb001e019000ea
:104ab8006500b900000078006a004000000041006d
:104ac800104190006518b9008000780060e520006a
:104ad8000080400012409800c27280001e40900082
:104ae8000080fb006500b90000007800e600400087
:104af800c0e4200000804000904090008180fb00ce
:104b0800204090000080fb004800dd00008070001d
:104b1800c800dd004800de00008070000000410091
:104b280063004000c07288001e4090000040e8000a
:104b3800104798001e4090000004e00095ff3200e6
:104b4800c07280000080e800c07288001a68a8005f
:104b580010c0b300004f78001e4078000080fa00b3
:104b6800000006000400fa00100798000040eb005f
:104b7800104798000040eb00004f7800304180005b
:104b8800e30f5000b8003a00e04080006800600081
:104b98000000e000b4003a00d20020008000eb00e2
:104ba800a0e5200036f00700d1728000f0f02f0059
:104bb80080806000000a200001007000d072880028
:104bc800d07280000030a100d0728800d1728000bd
:104bd80090ff2f00008060000010a000d0728800b5
:104be800d07280000000a100d07288001e009000e2
:104bf800d0409000f0e52000014878001e009000a9
:104c0800e040900000e62000014878000040eb00fa
:104c180010479800760037001e4090000081fb0086
:104c28001e4090000080fb009e0090004200dd00c6
:104c38006600400080814000934190008381fb0022
:104c480000804000204090000080fb004800dd000c
:104c580000807100c801dd00c800de00818071009d
:104c68004211dd0000e6200000004100f20f2000a4
:104c7800028160004811dd0010027800f30f200067
:104c88008301620003017100020878004809de0010
:104c9800f10f2000810061009001900002f02f00c8
:104ca8000281610082807000110098001e4090000f
:104cb8000081fb001e4090000080fb009e009000d9
:104cc8000080e8004200dd008081400093419000b0
:104cd8008381fb0000804000204090000080fb00a2
:104ce8004800dd0000807100800078000280e80044
:104cf8004201dd00a0e5200000004100f20f200085
:104d0800028160004811dd0010027800f30f2000d6
:104d18008301620003017100020878004809de007f
:104d2800f10f2000810061009001900002f02f0037
:104d38000281610082807000110098002073800059
:104d48004800de0032738000f10f2000810061000e
:104d5800c808dd0001007000800078001e40900047
:104d68000080fb004200dd0066014000a0e5200055
:104d780000004100100178004811de009001900009
:104d8800f00f2000008061004800dd000000710085
:104d98004801dd004800de0000007100008040008e
:104da8000080e800f10f200081006000c808dd00e5
:104db80023738000f20f200002816100828070005e
:104dc80021738800c800de00f00f2000008060001a
:104dd8003273800001f02f00810061000100700033
:104de800307388001e4090000040e800104798008b
:104df8001e4090000004e00087ff3200207380000e
:104e08004800de0032738000f10f2000810061004d
:104e1800c808dd00010070000080e800f10f2000e4
:104e280081006000c808dd0023738000f20f2000b5
:104e3800028161008280700021738800c800de0052
:104e4800f00f2000008060003273800001f02f0016
:104e58008100610001007000307388001a88a80082
:104e680010c0b300004f78001e4078000080fa00a0
:104e7800000006000400fa00100798000040eb004c
:104e8800004f78001e009000d53107001e009000ea
:104e980068004000d23107001e0090001200200078
:104ea800e1e12000d9310700c07180004800de0030
:104eb800d2718000f10f200081006100c808dd0078
:104ec80001007000f1e12000c80007008080fb00ad
:104ed8001e00900001017800f1e12000cb310700ad
:104ee8001e009000a200200031e22000c731070018
:104ef800d1e220001e00900022002000c3310700ec
:104f0800707180004800de0082718000f10f20007f
:104f180081006100c808dd00010070007cef070017
:104f280000017800707180004800de008371800005
:104f3800f10f200081806100c808dd0001007000c9
:104f4800800078001e009000b0310700a07180003a
:104f58004800de00b2718000f10f2000810061007e
:104f6800c808dd00010070000000e00009003a00f8
:104f7800807180004800de0092718000f10f2000ef
:104f880081006100c808dd00010070000000e00039
:104f98003200320011e320001e00900022002000a1
:104fa8009a310700807180004800de00927180000d
:104fb800f10f200081006100c808dd0001007000c9
:104fc800c800dd004800de0000807000917180009c
:104fd800c808de00a3718000f20f20000281610082
:104fe8004811dd00828070009e0190000001780069
:104ff800030078008531070051e320001e0090006f
:105008002200200081310700a07180004800de00e6
:10501800b2718000f10f200081006100c808dd0036
:1050280001007000c800dd004800de00008070004c
:10503800b1718000c808de00c3718000f20f200043
:10504800028161004811dd00828070009e0190009d
:1050580000017800030078006c3107001e00900002
:1050680037370700004f78001e4078000004e00042
:10507800010032001a08a9001e4078000080fa00da
:10508800000006000400fa00100798000040eb003a
:10509800004f78001e009000513107001e0090005c
:1050a800680040004e3107001e00900012002000ea
:1050b800c1e320005531070050728000d1e3200081
:1050c8004a0007008080fb001e0090000101780064
:1050d800d1e320004d31070011e420001e009000ac
:1050e8002200200049310700007280004800de00dd
:1050f80012728000f10f200081006100c808dd00f5
:1051080001007000c800dd004800de00008070006b
:1051180011728000c808de0023728000f20f2000a0
:10512800028161004811dd00828070009e019000bc
:10513800000178000300780034310700c0e3200044
:105148001040780066406000e24f500008003a00c6
:105158001e0090001200200061e420002b3107009f
:105168001e0090001200200051e4200027310700a3
:1051780070e42000104078000081fb00417280003c
:105188001e00900021310700d040800064006000bc
:105198000000e00005003a00c0e32000104078005d
:1051a800684060000004e0000d0032001e0090001e
:1051b800e3360700004f78001e4078000004e00046
:1051c800070032001a48a900c0e320001040780008
:1051d80066406000e24f500001003a001ca8a80099
:1051e8001e4078000080fa00000006000600fa0061
:1051f80010079800210798000040eb00104798001e
:105208001e00900000407800804078000174a100e2
:10521800014f78001e0090004700de00100798003c
:105228001e0090000000e000010032001e74a00083
:105238001e4090000080fb00ae00900000804000ff
:105248001e4878001e4090000040e8001047980073
:105258001e0090000000e000e9ff3a001e409000a8
:105268000080fa00000006000e00fa0060079800af
:105278001000200001002000008fbe006000b80070
:1052880020079800310798006000b8004007980090
:1052980051079800320037004e009000ee00900051
:1052a80000804000104078000081fb008001eb0086
:1052b800f0072000010020000202780003017800b6
:1052c800800178000100780003026200000061009c
:1052d8006101b800c011dd00020020000200be001c
:1052e8006121b80002007000838070001e01780000
:1052f8000191b900020178009e019000009ab9005e
:1053080084017800030141009e0178000018b8006c
:1053180001014100820078002e019000be0190003a
:105328000200400083804800200798003107980059
:105338001e01be004718dd00c910de0081007000a4
:105348004710dd00008fbe004e009000de00900088
:1053580061004000e080480040079800510798002d
:105368004e009000de009000e00f5000e08f5800e3
:10537800c9ff32004e0090000000e900ee009000e6
:1053880000804000104078000004e000c2ff3500b3
:105398002e009000be0090000080fa000000060079
:1053a8000200fa00000f780030418000e30f50003f
:1053b8000300320030418000e20f500005003a003f
:1053c80080f32000da2207001e007800310407006d
:1053d8002628ef00304180000080fa000000060017
:1053e8000400fa0010079800220020008000eb005b
:1053f8000e00780022ee07001e00900068004000b2
:10540800120020008e007800fa30070050718000ea
:105418004800de0062718000f10f20008100610009
:10542800c808dd0001007000c800dd004800de008b
:10543800008070000000e000010032001aa8a800f7
:105448001e00900068004000653007000080fa00e8
:10545800000006001000fa00700798000040eb00fa
:10546800304798000040eb00204798006400470050
:10547800920020008000eb0001ee070030002000c1
:10548800000f78007e00900068004000e4004700ac
:1054980012002000d73007007e009000680040000e
:1054a800e40047008100e80012002000d130070026
:1054b8007e00900068004000e4004700e58040005e
:1054c80012002000cb3007007e00900068004000ea
:1054d800e4004700e680400012002000c5300700c5
:1054e800ae48900010e520001040780080cf5000b2
:1054f80005003a009e48900020e520001040780002
:1055080080cf5000030032000000eb00000f78004d
:105518002500370064004700e70040007e00900047
:105528006800400012002000b230070010c0b3002d
:10553800304798000040eb002047980016003700dd
:105548002e4090000080fb006300400000004000f7
:1055580000004700a0009000c808de00300190005d
:10556800f00f2000000061004800dd00008070009e
:105578008000780000082000808f500003003a0067
:105588000000eb00000f7800070037002e40900065
:105598000040e80020479800ae4090003e40900050
:1055a80080cf5000e6ff39001c48a9007e0090001b
:1055b800680040000a3007001e0078000080fa00ea
:1055c800000006000800fa00300798000e80e80086
:1055d800420020008000eb00a9ed07003000200009
:1055e800000f78003e009000680040008e80e800c0
:1055f800120020007f3007003e0090006800400045
:105608008e80e8008100e800120020007930070051
:105618003e409000e24f5000030032000000eb00d3
:10562800000f7800180037003e0090006800400026
:105638008e80e8008180e800120020006d300700ad
