:100000000C94D5000C94F2000C94C2260C94EC11C4
:100010000C9427120C94F2000C94F2000C94F20051
:100020000C94F2000C94F2000C94F2000C94F20088
:100030000C94F2000C94F2000C94F2000C94F20078
:100040000C94F2000C94F2000C94F2000C94F20068
:100050000C94F2000C94F2000C9464150C94381576
:100060000C94F2000C94F2000C94F2000C94F20048
:100070000C94F2000C9480110C94F2000C94F20F8A
:100080000C941B100C9444100C94F2000C94F2008D
:1000900032294629D9294C29D92972297C29D929DB
:1000A000D929D929CA29D0296E616E00696E6600E6
:1000B00000407A10F35A00A0724E18090010A5D41F
:1000C000E80000E87648170000E40B54020000CA7C
:1000D0009A3B000000E1F5050000809698000000C2
:1000E00040420F000000A086010000001027000021
:1000F0000000E803000000006400000000000A00A7
:10010000000000000100000000002C76D888DC67A9
:100110004F0823DFC1DFAE59E1B1B796E5E3E45301
:10012000C63AE651997696E8E6C28426EB898C9B1E
:1001300062ED407C6FFCEFBC9C9F40F2BAA56FA5BE
:10014000F490055A2AF75C936B6CF9676DC11BFC40
:10015000E0E40D47FEF520E6B500D0ED902E03005B
:10016000943577050080841E080000204E0A0000A8
:1001700000C80C333333330F986E12831141EF8D67
:100180002114893BE65516CFFEE6DB18D1844B38A7
:100190001BF77C1D901DA4BBE424203284725E22D8
:1001A0008100C9F124ECA1E53D2711241FBECFEF4A
:1001B000CDBFDFE3DEBF18E2A0E0B8E2EEE7F9E68C
:1001C00002C005900D92AC3EB107D9F72EE2ACEE1D
:1001D000B8E201C01D92AD31B207E1F70E94FB28E1
:1001E0000C9495320C94000081E08093A42C6AE476
:1001F00071E080E090E00895CF93DF93CDB7DEB754
:100200002B97CDBFDEBF0E942A18CE0101962BE0AE
:10021000FC0111922A95E9F728E837E229833A830D
:100220000E942E21882319F08EE295EA02C081E611
:1002300095EA0E94DC312B96CDBFDEBFDF91CF91D6
:1002400008950E94FC000E94A3060E94320842E327
:1002500050E060E070E080E098E20E94BC054AE473
:1002600051E060E070E08AE098E20E94BC050E94E4
:100270009603E0E6F4E08081816080838081826083
:100280008083808184608083808188608083848192
:100290008160848384818260848384818460848398
:1002A0008481886084830895CF93DF93CDB7DEB7D0
:1002B0002697CDBFDEBF60E070E0CE0101960E94C0
:1002C000C520882329F084E895EA0E94DC311AC011
:1002D0008E811F928F938D811F928F938C811F929D
:1002E0008F938B811F928F938A811F928F93898125
:1002F0001F928F938CE995EA9F938F930E94C6314A
:10030000CDBFDEBF2696CDBFDEBFDF91CF91089572
:10031000CF93DF93FC01828193810E9441270E9449
:10032000CD06EC010E94D109CE010E94390C83E078
:10033000DF91CF910C948A28CF93DF93FC016481E5
:100340007581828193810E9465270E94CD06EC0110
:100350000E94D109CE01DF91CF910C94390CCF923C
:10036000DF92EF92FF92CF93DF93EC018B818F931B
:100370008A818F938CEB95EA9F938F930E94C6316D
:100380008A819B810E9410266B017C011F928AEF5B
:100390008F938B818F938A818F9388EC95EA9F93BB
:1003A0008F930E94C6318DB79EB70A968DBF9EBFB0
:1003B00024EE37E24AEFC701B601DF91CF91FF90FB
:1003C000EF90DF90CF900C946A26CF93DF9383EE6B
:1003D00095EA0E94DC310E94CD06EC010E948E0954
:1003E000E889F9898081DF91CF910C94CC258CEF3D
:1003F00095EA0E94DC310C94BD20AF92BF92CF925F
:10040000DF92EF92FF920F931F93CF93DF93CDB7BD
:10041000DEB76097CDBFDEBF8C01DC0113968C91F7
:1004200013978F9312968C918F9386E196EA9F9300
:100430008F930E94C631F801828193810E94102619
:100440006B017C010E941D2460E070E086E998E267
:100450000E9430240E94CD068C01DC015096AD90A4
:10046000BC90519740E061E082E090E00E94392426
:10047000F5018083D8015096ED91FC9151970F9032
:100480000F900F900F90808187FF04C08AE296EA58
:100490000E94DC3182E090E089839A8387E09BE5CB
:1004A0008B839C83CD82DE82EF82F886D8015096C2
:1004B000ED91FC91519740E1BE016F5F7F4F8081CC
:1004C0000E94C12487FF13C0D8015096ED91FC9182
:1004D000519780810E94CC25D8015096ED91FC91D6
:1004E00051978FEF808382E496EA0E94DC31609618
:1004F000CDBFDEBFDF91CF911F910F91FF90EF90A5
:10050000DF90CF90BF90AF9008950F931F93CF933C
:100510008C016FE576EAFC01828193810E944F3164
:10052000892B39F440E068E088E10E944306C1E08D
:1005300001C0C0E061E676EAF801828193810E9401
:100540004F31892B31F441E068E088E10E94430695
:10055000C1E063E676EAF801828193810E944F311F
:10056000892B31F442E068E088E10E944306C1E053
:1005700065E676EAF801828193810E944F31892BEA
:1005800041F443E068E088E1CF911F910F910C9412
:100590004306C11107C087E696EACF911F910F91DC
:1005A0000C94DC31CF911F910F91089580914008F8
:1005B000E091EF288A3069F08D3059F0AE2FB0E02D
:1005C000A955B34D8C931092EE28EF5FE093EF287E
:1005D0000895F0E0E955F34D108281E08093EE2814
:1005E00008950F931F93CF93DF93EC016A817B8172
:1005F00088E796EA0E944F31892B09F58BE796EA46
:100600000E94DC318C819D81FC0101900020E9F782
:100610003197BF01681B790B2E813F810FEF10E0EE
:1006200042E00E94B320882319F086E896EA09C0C8
:1006300082E0DF91CF911F910F910C948A2884E979
:1006400096EADF91CF911F910F910C94DC31DF92EC
:10065000EF92FF920F931F93CF93DF93CDB7DEB747
:100660006497CDBFDEBF8091EE28882309F44FC088
:1006700068EA76EA87EA9CE20E94413110E000973E
:1006800081F0FE013196E10FF11DE10FF11D808334
:1006900091831F5F68EA76EA80E090E00E94413132
:1006A000EECF06E218E284E1E82E88E2F82ED12CA3
:1006B000E8E208331E07D1F069817A81D8018D9173
:1006C0009D918D010E944F31892B61F4D701ED91ED
:1006D000FC91CE01019609958EEA96EA0E94DC31E2
:1006E000DD24D394B2E0EB0EF11CE2CFD11004C0B4
:1006F0008FEB96EA0E94DC3180E4E7EAFCE2DF015E
:100700001D928A95E9F71092EF281092EE2862E385
:1007100070E080E090E06496CDBFDEBFDF91CF91C6
:100720001F910F91FF90EF90DF90089586ED92E07A
:100730000C94ED0F60E070E0CB0108950E94671209
:100740001092F5281092F6281092F7281092F828A7
:100750001092F1281092F2281092F3281092F428A7
:100760001092F0280895CF92DF92EF92FF920F93AC
:100770001F930FEF1FEF20E030E068017901C61AE8
:10078000D70AE80AF90AC092F128D092F228E0923A
:10079000F328F092F42880E090E00E9453120E9427
:1007A0006D128091F1289091F228A091F328B091D8
:1007B000F4281F910F91FF90EF90DF90CF900C9451
:1007C0005312CF92DF92EF92FF92C090F528D09013
:1007D000F628E090F728F090F828C60ED71EE81EFD
:1007E000F91E8091F028882329F10E945C12A0E074
:1007F000B0E04091F1285091F2286091F328709177
:10080000F42884179507A607B70720F48FEF9FEF0A
:10081000A0E0B0E04091F1285091F2286091F328D7
:100820007091F428C41AD50AE60AF70AC80ED91E30
:10083000EA1EFB1EC701B601FF90EF90DF90CF903C
:1008400008950F931F93CF93DF93C091FB28D0910E
:10085000FC2860E070E0CB010E94E103209781F06A
:100860000E811F8128853985061B170B280B390B34
:100870000E831F83288739870C80DD81C02DEECF42
:100880000091F5281091F6282091F7283091F8284A
:10089000061B170B280B390B0093F5281093F6282D
:1008A0002093F7283093F828DF91CF911F910F9173
:1008B0000895CF92DF92EF92FF920F931F93CF9301
:1008C000DF93EC01CE80DF80E884F9840091FB287F
:1008D0001091FC281C821D828091F5289091F628A9
:1008E000A091F728B091F828C816D906EA06FB06A9
:1008F00068F40E9421042FEFE21AF20AC61AD70AFE
:10090000E80AF90ACE82DF82E886F986E0E0F0E0C4
:1009100081E00115110561F0D80116964D915D91A8
:100920006D917C911997C416D506E606F70618F462
:10093000813009F505C080E0F80104811581E9CF17
:100940006FEF7FEF80E090E00E94B3030E946D1292
:10095000E091FB28F091FC28BDE2E73EFB0719F48B
:100960000480F581E02DEC83FD83C093FB28D093B8
:10097000FC2881E007C0848195818C839D83C4839A
:10098000D58380E0DF91CF911F910F91FF90EF9081
:10099000DF90CF9008950F931F930E946712E0910C
:1009A000FB28F091FC28309721F41F910F910C94B3
:1009B0009E030091F5281091F6282091F728309198
:1009C000F82886819781A085B185BC01CD01601B87
:1009D000710B820B930B6115710521E08207910564
:1009E00008F18091F5289091F628A091F728B09110
:1009F000F8280197AF4FBF4F8093ED2D9093EE2DC8
:100A0000A093EF2DB093F02DE093EB2DF093EC2D10
:100A100087EE9DE28093FB289093FC286FEF7FEF99
:100A200080E090E00E94B3030E94611281E0809315
:100A3000F0281F910F9108950F931F93CF93DF9389
:100A4000FC0120813181232B59F18B01EC010E94A3
:100A5000671288819981E881F9818017910741F4B3
:100A600084819581888399830E94CB04C1E019C059
:100A7000A0E0B0E0309781F0E017F10741F4848105
:100A8000958114968D939C931597C1E006C0DF0164
:100A90000480F581E02DEECFC0E00E94611201C01C
:100AA000C0E08C2FDF91CF911F910F910895CF93CC
:100AB000DF93EC01BC018BEF98E20E941C058111D1
:100AC00005C0BE0189EF98E20E941C051C821D82B0
:100AD000DF91CF9108952DE2873E920711F488E3CC
:100AE00098E2FC01148215822091F9283091FA28AD
:100AF000232B29F48093F9289093FA280895E09104
:100B0000F928F091FA28248135812115310511F059
:100B1000F901F9CF848395830895CF93DF93809172
:100B2000FB289091FC28FC01C481D5814681578126
:100B3000608571854093F5285093F6286093F728D7
:100B40007093F8281092F1281092F2281092F3284E
:100B50001092F428FDE2873E9F0711F00E946B057A
:100B6000C093FB28D093FC28DF91CF910C94CB0449
:100B70008DE895E00C94E711CF92DF92EF92FF920F
:100B8000CF93DF93EC016A017B010E9457050E941D
:100B90006712C701B6010E94E1036E837F838887D5
:100BA0009987CE010E945904882341F0DF91CF91AB
:100BB000FF90EF90DF90CF900C94CB048091F028C1
:100BC000882341F0DF91CF91FF90EF90DF90CF909D
:100BD0000C946112DF91CF91FF90EF90DF90CF9056
:100BE00008951F93CF93DF938091F9289091FA286D
:100BF000892B51F10E947312182F0E946712C09125
:100C0000F928D091FA28E091F928F091FA28848106
:100C100095818093F9289093FA281C821D821111E6
:100C20000E946112E881F9818A819B810995AB015B
:100C3000BC01411551056105710531F0CE01DF910F
:100C4000CF911F910C94BC05DF91CF911F91089516
:100C500080E00C94590F61E070E00E94DC1260E0CB
:100C600070E080E090E00E94C41284E0089562E0A9
:100C700070E00E94DC1260E070E080E090E00E9492
:100C8000C41282E008951F93CF93DF9300D0CDB7B5
:100C9000DEB7182F69834A83812F0E94451388236A
:100CA000D9F3BE016E5F7F4F8BE296E00E94C412C3
:100CB00061E070E0CE0101960E94DC1260E070E01D
:100CC00085E195E10E94C9120E9435140E9400132B
:100CD0008130E1F30F900F90DF91CF911F91089534
:100CE0001F93CF93DF9300D01F92CDB7DEB7182F9D
:100CF0006B83812F0E9445138823D9F3BE016F5F58
:100D00007F4F87E396E00E94C41261E070E0CE015D
:100D100003960E94DC1260E070E085E195E10E949C
:100D2000C9120E9435140E9400138130E1F38981B9
:100D30009A819827892798272396CDBFDEBFDF9118
:100D4000CF911F910895CF93DF930E943208C7EC93
:100D5000D9E218821982AFEFB8E21D921C92119766
:100D6000E7E5FBE2C083D18380E991E0848395834A
:100D7000C283D38316821782A087B18788EC90E064
:100D800084879587A287B3871686178682E498E2C0
:100D9000808B918BDF91CF91089587E59BE2089539
:100DA000FC0146815781608171810088F189E02DC5
:100DB000808120E030E0082E000C990B0E940C0F7F
:100DC0009C018093FD289093FE2881E01216130663
:100DD0000CF080E00895DC015096ED91FC91519764
:100DE0008081082E000C990B0E94EE0E21E0892BC9
:100DF00009F020E0822F08950F931F93CF938C0169
:100E0000C62F8FE59BE20E94190E4C2F50E0B801CF
:100E10008FE59BE2CF911F910F910C94210E809151
:100E20006E2B816080936E2B60E070E0CB010895A3
:100E300080916E2B826080936E2B2091A72B309136
:100E4000A82B32272327322721503109A8EEB3E0FF
:100E50000E941330089580916E2B846080936E2BD6
:100E600060E375E780E090E0089580916E2B8860E4
:100E700080936E2B60E070E0CB01089580916E2B23
:100E8000806180936E2B60E070E0CB01089520E0DC
:100E9000382F3F77880F892F881F990B91950097DE
:100EA00009F03068FB01E20FF11D30832F5F0097DE
:100EB00079F7822F08952F923F924F925F926F920F
:100EC0007F928F929F92AF92BF92CF92DF92EF92DA
:100ED000FF920F931F93CF93DF93CDB7DEB7CE531F
:100EE000D140CDBFDEBF8E01035D1E4F20E1D80192
:100EF0001D922A95E9F7FE01E753FF4FC35CDE4FD1
:100F0000E883F983CD53D14024E611922A95E9F77D
:100F10009E012F5F3F4F390128ECD3011D922A9586
:100F2000E9F708967C0141E050E0B8010E94920E7A
:100F30006801BFEFCB1ADB0A41E050E0B601C70100
:100F40000E94920E4801E5E08E0E911CD6018D9113
:100F50006D0187FF0AC0A815B90539F041E050E0DE
:100F6000B601C7010E94920EF1CFF801212C312C5D
:100F70002101812C912C54018394D180AD2DAF7728
:100F8000B0E0A50194010E942230260E371E481EB3
:100F9000591E87E0880C991CAA1CBB1C8A95D1F7A6
:100FA000D7FE02C03196E9CF42E050E0B8016B5F56
:100FB0007F4FC7010E94920E29EC30E02C0F3D1F9D
:100FC000F8012783308745815681542745275427C8
:100FD000B901C7010E94920ED80115968D919C917E
:100FE00016979827892798274EEF5FEF6FEF7FEFCF
:100FF000481B590B61097109420D531D641D751D74
:101000001C966D927C921D97B301C7010E94920EAF
:101010000E94C20EFC01892B51F0D8011C966D91E3
:101020007C911D9717968D919C9118970995C701F2
:101030000E94190E83E0C25CDE4FCDBFDEBFDF91A0
:10104000CF911F910F91FF90EF90DF90CF90BF90C5
:10105000AF909F908F907F906F905F904F903F9058
:101060002F9008951092692B0895CF93DF93FC0180
:101070008DE1AAE9BBE2ED0119928A95E9F7809129
:101080009A2B8F70806180939A2B84E08093A02BA1
:101090009DE49093A12B91E59093A22B94E59093DE
:1010A000A32B9093A42B8093A52B6789708D61153A
:1010B000710521F483899489892B11F082EC01C098
:1010C00082E08093A62B8585968598278927982787
:1010D0008093A72B9093A82BA189B289A093AB2BC7
:1010E000B093AC2BED0109900020E9F721979E0108
:1010F0002A1B3B0B2093A92B3093AA2B4091A62BA4
:1011000046FF0AC0818D928D8093B32B9093B42BB0
:101110006093B12B7093B22B47FF16C085899689D7
:101120008093AF2B9093B02B638974896093AD2B20
:101130007093AE2B8091B12B9091B22B860F971F9D
:101140000496820F931F01C0C9010C968093B52BA2
:101150009093B62B407CB1F08091B12B9091B22B43
:101160009827892798278093B12B9093B22B809151
:10117000AD2B9091AE2B9827892798278093AD2B84
:101180009093AE2B3227232732272093A92B30931D
:10119000AA2B81E08093B82B8093692BDF91CF91AC
:1011A0000895CF93DF93FC0180E1AAE8BBE2ED0153
:1011B00019928A95E9F78091692B833009F06BC009
:1011C00090918A2B9F70906390938A2B808183FBF0
:1011D000882780F980FB93F990938A2B8081867011
:1011E000997F982B90938A2B892F8E70883019F4D1
:1011F000977F90938A2B908180918A2B90FB80F926
:1012000080938A2B878190858093912B9093922B4A
:10121000A781B085ED0109900020E9F72197CE0163
:101220008A1B9B0B80938F2B9093902B208126956C
:10123000237061F021852093932B22852093942B9A
:1012400022E030E02093982B3093992B248535852C
:101250002093962B3093972B43854093952B209189
:10126000982B3091992B2E5F3F4F240F311D280F63
:10127000391F2093982B3093992B982789279827EB
:1012800080938F2B9093902B8091B82B84608093C8
:10129000B82B81E001C080E0DF91CF910895CF931A
:1012A000DF93FC018091692B8330A1F58091B72BEE
:1012B00082FD30C08EE0ACE7BBE2ED0119928A9569
:1012C000E9F780917C2B8970826880937C2B8581E3
:1012D0008093812B86818093822B87819085382F04
:1012E000292F2093832B3093842B218532852093C3
:1012F000852B3093862B23852093872B059680930F
:10130000882B9093892B8091B82B88608093B82B81
:1013100081E001C080E0DF91CF9108950F931F938A
:10132000CF93DF9300D0CDB7DEB72091692B225049
:10133000223058F58C0181E698E20E945705198207
:101340001A82C8010E94190EC80108960E94190E3F
:1013500089818870806E877F898341E050E0BE017B
:101360006F5F7F4FC8010E94210E41E050E0BE0137
:101370006E5F7F4FC8010E94210EC8010E94D006F7
:1013800081111092B82B1092692B8091692B0F90CC
:101390000F90DF91CF911F910F91089580916C2B49
:1013A00008950F931F93CF93DF9300D0CDB7DEB78F
:1013B0008C0110926D2B8091692B823020F083304C
:1013C00009F494C046C28091B82B80FF42C2C80184
:1013D0000E94190EC80108960E94190E41E050E0C3
:1013E0006AE97BE2C8010E94210E6BE97BE28091F1
:1013F000B52B9091B62B0E944707482F50E06BE920
:101400007BE2C8010E94210E4AE050E06FE97BE2D6
:10141000C8010E94210E42E050E069EA7BE2C80167
:101420000E94210E6091AB2B7091AC2BFB010190BF
:101430000020E9F73197AF01461B570BC8010E9406
:10144000210E8091B12B9091B22B892B31F4809198
:10145000AD2B9091AE2B892B51F142E050E06DEA1B
:101460007BE2C8010E94210E4091AD2B5091AE2B22
:101470005427452754276091AF2B7091B02BC8019A
:101480000E94210E42E050E061EB7BE2C8010E9425
:10149000210E4091B12B5091B22B54274527542750
:1014A0006091B32B7091B42BC8010E94210EC8012A
:1014B0000E94D006882309F4D5C18091B82B8E7F75
:1014C0008093B82B85E080936D2B40E355E760E077
:1014D00070E08BE698E20E94BC0582E08093692B65
:1014E00080916E2B8E7F80936E2BB3C12091B82B91
:1014F000222309F4AEC180E030E0482FB901082E64
:1015000002C0759567950A94E2F760FD02C08F5F8F
:10151000F4CF81E090E001C0880F4A95EAF7883067
:1015200009F4BFC020F4843009F449C092C180316D
:1015300009F41AC1803209F08CC180916E2B81FFB1
:1015400088C180916E2B8D7F80936E2B19821A82B9
:10155000C8010E94190EC80108960E94190E8981BF
:101560008170806C8E7F89831A8241E050E0BE01D9
:101570006F5F7F4FC8010E94210E41E050E0BE0125
:101580006E5F7F4FC8010E94210EC8010E94D006E5
:10159000882309F45EC18091B82B8F7D8093B82B8E
:1015A0008091B72B80618093B72B40E355E760E0D3
:1015B00070E087E598E20E94BC0585E054C181E6B1
:1015C00098E20E945705C8010E94190EC8010896AA
:1015D0000E94190E41E050E06AE87BE2C8010E94D7
:1015E000210E6BE87BE28091982B9091992B0E94C1
:1015F0004707482F50E06BE87BE2C8010E94210EAC
:1016000042E050E06FE87BE2C8010E94210E409169
:101610008F2B5091902B5427452754276091912B65
:101620007091922BC8010E94210E80918A2B8670A6
:10163000823071F441E050E064E97BE2C8010E942D
:10164000210E41E050E063E97BE2C8010E94210ED7
:101650004091952B50E06091962B7091972BC8018B
:101660000E94210E8091B82B82FD04C080918A2BAC
:1016700083FFFCC0C8010E94D006882309F4F6C08D
:101680008091B82B8B7F8093B82B80918A2B8670AA
:10169000823009F0C5C08091B72B80628093B72B50
:1016A000BFC0C8010E94190EC80108960E94190EF9
:1016B00041E050E06CE77BE2C8010E94210E6DE73B
:1016C0007BE28091882B9091892B0E944707482FBD
:1016D00050E06DE77BE2C8010E94210E41E050E03E
:1016E00062E87BE2C8010E94210E41E050E061E81F
:1016F0007BE2C8010E94210E42E050E063E87BE2F9
:10170000C8010E94210E4091832B5091842B5427B5
:10171000452754276091852B7091862BC8010E9424
:10172000210E41E050E067E87BE2C8010E94210EF3
:10173000C8010E94D006882309F475C08091B82B97
:10174000877F8093B82B8091B72B84608093B72BD1
:1017500080916E2B877F80936E2B40E355E760E08E
:1017600070E08DE498E25AC0C8010E94190EC801C9
:1017700008960E94190E41E050E06FE67BE2C80136
:101780000E94210E60E77BE280917A2B90917B2B67
:101790000E944707482F50E060E77BE2C8010E94A3
:1017A000210E41E050E065E77BE2C8010E94210E76
:1017B00041E050E064E77BE2C8010E94210E42E074
:1017C00050E066E77BE2C8010E94210E4091762B33
:1017D0005091772B5427452754276091782B70918F
:1017E000792BC8010E94210EC8010E94D0068823CF
:1017F000D1F08091B82B8F7E8093B82B8091B72B3E
:1018000088608093B72B80916E2B8F7E80936E2B98
:1018100040E355E760E070E083E498E20E94BC0595
:1018200085E080936D2B2091A72B3091A82B21155B
:10183000310579F032272327322721503109A8EECC
:10184000B3E00E941330AB01BC0181E698E20E9434
:10185000BC058091692B0F900F90DF91CF911F9164
:101860000F91089586E080936D2BF3CF1092692B32
:10187000F0CFAF92BF92CF92DF92EF92FF920F9391
:101880001F93CF93DF93CDB7DEB72997CDBFDEBFD0
:101890007C0110926D2B198680916E2B82FD08C001
:1018A00080916E2B83FD04C080916E2B84FF05C058
:1018B0001092692BC7010E94EB06F7018685978578
:1018C0001091692B892B11F4812FA5C1123051F091
:1018D000133009F486C0113009F498C187E0809371
:1018E000692B94C180916E2B80FD72C0C090A72B94
:1018F000D090A82B8BE698E20E9457055701F8E09C
:10190000AF0EB11C41E050E0BE01675F7F4FC501E3
:101910000E94640E9C019985892F807F803209F096
:1019200049C0BE016F5F7F4F84E0FB0111928A9531
:10193000E9F741E050E0C5010E94920E41E050E01D
:10194000BE016E5F7F4FC5010E94920E41E050E0E4
:10195000BE016D5F7F4FC5010E94920E41E050E0D5
:10196000BE016C5F7F4FC5010E94920E8C8188235F
:1019700011F080E001C083E08093692B8330C1F4D3
:101980003C2D2D2D2115310589F08091B82B8062D9
:101990008093B82B21503109A8EEB3E00E94133098
:1019A000AB01BC0181E698E20E94BC0584E016C050
:1019B00083E014C010936D2B90936C2B20936A2BB3
:1019C00030936B2B1092692BC7010E94EB061EC14E
:1019D0001092692BC7010E94EB0681E080936D2B6A
:1019E00015C18701085F1F4F41E050E0BE01675FEE
:1019F0007F4FC8010E94640E898582958F7089305F
:101A000099F138F4833009F4CAC0843009F4CBC0AA
:101A1000FDC08B3009F476C08D3009F0F7C080919D
:101A2000B72B84FFF3C080916E2B82FDEFC087E55A
:101A300098E20E94570519821A8241E050E0BE01E7
:101A40006F5F7F4FC8010E94920E8091A72B9091EB
:101A5000A82B892B29F08091B82B80628093B82B1A
:101A6000C8010E94190ED2C08091B72B82FFCEC050
:101A700080916E2B83FDCAC08DE498E20E945705C9
:101A8000BE016F5F7F4F88E0FB0111928A95E9F7F5
:101A900041E050E0C8010E94920E41E050E0BE01DA
:101AA0006E5F7F4FC8010E94920E41E050E0BE0180
:101AB0006A5F7F4FC8010E94920E41E050E0BE0174
:101AC000695F7F4FC8010E94920E9F818091812B98
:101AD000981711F0F12C12C09E818091822B9813DF
:101AE000F9CF41E050E0BE01685F7F4FC8010E941E
:101AF000920E8885803871F393E0F92E8091B72B90
:101B00008B7F45C08091B72B83FF80C080916E2B67
:101B100084FD7CC083E498E20E945705BE016F5F9C
:101B20007F4F84E0FB0111928A95E9F741E050E094
:101B3000C8010E94920E41E050E0BE016E5F7F4FEF
:101B4000C8010E94920E8A818230D1F441E050E0B7
:101B5000BE016D5F7F4FC8010E94920E41E050E0D0
:101B6000BE016C5F7F4FC8010E94920E9C818091E4
:101B7000742B981305C09B818091752B981711F0D9
:101B8000F12C02C083E0F82E8091B72B877F8093E1
:101B9000B72BC8010E94190EF092692B37C0C701FC
:101BA0000E945B0733C0BE016F5F7F4FFB01119244
:101BB0008A95E9F741E050E0C8010E94920E41E0A9
:101BC00050E0BE016E5F7F4FC8010E94920E41E05F
:101BD00050E0BE016C5F7F4FC8010E94920E41E051
:101BE00050E0BE016D5F7F4FC8010E94920E9B8145
:101BF0008091932B98130AC09C818091942B981309
:101C000005C08091B72B8F7D8093B72B89858093FA
:101C10006C2B8091692B2996CDBFDEBFDF91CF91D0
:101C20001F910F91FF90EF90DF90CF90BF90AF90FA
:101C30000895FC01808191818283938316821782AB
:101C40000895EF92FF920F931F93CF93DF93FC01C0
:101C5000EB017A0100811181648175819B01215022
:101C60003109200F311F82819381801B910B4681A6
:101C70005781840F951F0E94E52FD801A80FB91F27
:101C8000AE014E0D5F1DC417D507B1F02A173B07F3
:101C900010F4A081B18186819781892B29F08281FE
:101CA0009381A817B90741F089918D938681978117
:101CB000019686839783E7CFC701DF91CF911F916C
:101CC0000F91FF90EF9008950F931F93CF93DF93A1
:101CD000FC01C281D3812481358121503109808169
:101CE0009181280F391F8B0180E090E084179507C0
:101CF000A1F0668177818617970778F4BE01680F97
:101D0000791FDB016C91D8016D938D012C173D0774
:101D100010F4C081D1810196E9CFDF91CF911F915D
:101D20000F910895CF93DF93FC01248135812150D9
:101D3000310980819181280F391FEB0180E090E00B
:101D400084179507E1F066817781672BC1F0A28146
:101D5000B3816C916993628173816F5F7F4F6283FE
:101D60007383A681B7811197A683B7832617370798
:101D700020F460817181628373830196E1CFDF91EA
:101D8000CF9108958091F12D9091F22D0895E091D9
:101D9000B92BF091BA2B309759F0A081B1812C91D9
:101DA000022E000C330B482F50E02417350789F022
:101DB0009F012B5F3F4F79F00580F681E02D408138
:101DC000042E000C550B90E04817590721F4C90167
:101DD0000895CF01089580E090E00895CF93C82F33
:101DE0000E94C70E009711F0FC0114828C2F0E94F4
:101DF000CC25882351F0873F21F08A3F49F489E0C0
:101E000001C085E08093BB2B03C080E090E002C05E
:101E10008FEF9FEFCF910895EF92FF920F931F9353
:101E2000CF93DF93232B11F086E11BC0EA018B01D6
:101E30007C0120E030E00E940D258823A9F0823F3C
:101E400079F08A3F99F4F7FE02C086E20AC0012BBE
:101E500011F48EE006C0C937D54030F388E201C0E6
:101E600087E38093BB2B02C0CE0102C08FEF9FEFB0
:101E7000DF91CF911F910F91FF90EF900895E0ECCB
:101E8000F8E083E28083118212821092BC2B1382CD
:101E900080E008952091BC2B211109C021E02093FE
:101EA000BC2B8093C0089093C10881E0089580E026
:101EB0000895E82FF0E0EE0FFF1FEB58F74D8081FB
:101EC00091810C944A0F1092BC2B08958093C40802
:101ED0008091C30887FFFCCF8091C4080895FC015E
:101EE000680F791FE617F70759F080818093C408BF
:101EF0008091C30887FFFCCF8091C4088193F2CF03
:101F00000895680F791F8617970761F0FC012191EA
:101F1000CF012093C4082091C30827FFFCCF209154
:101F2000C408F1CF0895680F791F8617970761F0ED
:101F30001092C4082091C30827FFFCCF2091C40849
:101F4000FC012193CF01F1CF08958093C408089537
:101F50008091C408089540E068ED80E191E00E941E
:101F6000A010E0E1F1E012821382789480E00895FD
:101F700080914008E091CA2BEF5FE7709091C92BE8
:101F8000E91759F0E093CA2BF0E0E553F44D808354
:101F90008091C82B8F5F8093C82B08958091BD2BB3
:101FA000882389F0E091BE2BEF5FE770E093BE2BB2
:101FB000F0E0E054F44D8081809342088091BD2B85
:101FC00081508093BD2B8091BD2B811105C08091E4
:101FD00045088F7D80934508089580937B289093D2
:101FE0007C2808951F920F920FB60F9211242F9301
:101FF0003F934F935F936F937F938F939F93AF9391
:10200000BF93EF93FF93E0917B28F0917C2830976A
:1020100009F00995FF91EF91BF91AF919F918F9139
:102020007F916F915F914F913F912F910F900FBED4
:102030000F901F9018951F920F920FB60F921124B8
:102040002F933F934F935F936F937F938F939F93C0
:10205000AF93BF93EF93FF93E0917928F0917A28A3
:10206000309709F00995FF91EF91BF91AF919F9142
:102070008F917F916F915F914F913F912F910F9031
:102080000FBE0F901F9018951F920F920FB60F92D0
:1020900011248F93EF93FF93E0E4F8E08481806450
:1020A0008483FF91EF918F910F900FBE0F901F903F
:1020B00018959091BF2B9F5F97702091BD2B283072
:1020C000E1F3E92FF0E0E054F44D80839093BF2BCF
:1020D0000FB6F8940F928091BD2B8F5F8093BD2B2C
:1020E0000F900FBE80914508806280934508089547
:1020F0000E94591080E090E00895E0E4F8E084E761
:1021000090E08087918780ED858380EC868383E0F3
:10211000878313861486168615861092C92B109213
:10212000CA2B1092C82B1092BE2B1092BF2B10926C
:10213000BD2B8DE798E28093192E90931A2E089567
:10214000FC0164BF4083089508950895089508959B
:102150000895E0E9F4E0808188608193E83984E0C3
:10216000F807C9F7E0EBF4E0808188608193E83BF1
:1021700084E0F807C9F7E0E1F4E0808188608193AA
:10218000E83184E0F807C9F7E0E3F4E08081886093
:102190008193E83384E0F807C9F7E0E5F4E0808153
:1021A00088608193E83584E0F807C9F7E0E7F4E058
:1021B000808188608193E83784E0F807C9F7089543
:1021C0000F931F93CF93DF930E94A91040E054E038
:1021D00082EDFA01808320E234E0F901108280E48C
:1021E00094E0FC011082C0E6D4E01882A0E8B4E0DC
:1021F0001C9200EA14E069E1F801608360E8FA01EA
:102200006483F9011482FC0114821C8214961C92CE
:102210001497F8011482FA01108A118A128A138A1B
:10222000148A158A168A178AF901108A118A128A65
:10223000138A148A158A168A178AFC01108A118A51
:10224000128A138A148A158A168A178A188A198A92
:102250001A8A1B8A1C8A84E08D8B1E8A1F8A5096DC
:102260001C92509751961C92519752961C925297DD
:1022700053961C92539754961C92549755961C92C1
:10228000559756961C92569757961C92F801108AAD
:10229000118A8BE0828B138A148A158A168A178A10
:1022A000E0EEF5E011821082148215821382128210
:1022B00086EA90E18093DB2B9093DC2B87EA90E118
:1022C0008093D92B9093DA2B88EA90E18093D72BD7
:1022D0009093D82B85EA90E18093D52B9093D62BC1
:1022E00084EA90E18093D32B9093D42BDF91CF910C
:1022F0001F910F9108958093D52B9093D62B08951D
:102300001F920F920FB60F9211242F933F934F936A
:102310005F936F937F938F939F93AF93BF93EF934D
:10232000FF93B99B05C0E091DB2BF091DC2B099565
:10233000B89B05C0E091D92BF091DA2B0995BB9B96
:1023400005C0E091D72BF091D82B0995BA9B05C019
:10235000E091D52BF091D62B0995BC9B05C0E0915F
:10236000D32BF091D42B09958FEF87BBFF91EF9181
:10237000BF91AF919F918F917F916F915F914F919D
:102380003F912F910F900FBE0F901F901895809145
:1023900041018111FCCF83E690E080934C01909342
:1023A0004D01109248011092490180934A01909387
:1023B0004B0181E08093470180934201809340016B
:1023C000809151018111FCCF1092520108958093A8
:1023D000E12B9093E22B08951F920F920FB60F926C
:1023E00011242F933F934F935F936F937F938F931A
:1023F0009F93AF93BF93EF93FF938091430180FF2F
:1024000007C0E091E12BF091E22B309709F009959C
:102410008091430181FF07C0E091DF2BF091E02B19
:10242000309709F0099583E080934301FF91EF9184
:10243000BF91AF919F918F917F916F915F914F91DC
:102440003F912F910F900FBE0F901F9018951F92E4
:102450000F920FB60F9211242F933F934F935F93D8
:102460006F937F938F939F93AF93BF93EF93FF935C
:10247000E091DD2BF091DE2B309709F0099581E09A
:1024800080935301FF91EF91BF91AF919F918F91F5
:102490007F916F915F914F913F912F910F900FBE60
:1024A0000F901F9018952091410121FDFCCF809342
:1024B0004801909349010895809148019091490104
:1024C0000895E0E4F1E08281816082830895E0E490
:1024D000F1E082818E7F82830895E0E4F1E08381E0
:1024E0008E7F838308959091420181E090FF80E088
:1024F0000895E6E0FCE280818D7F80831092052CB8
:1025000080E00895E6E0FCE2808181608083809134
:10251000FF2B880F81608093A70884E008950C94B6
:102520008212E6E0FCE28081816080838091FF2B53
:10253000880F8093A70883E008950C94911290E08F
:10254000FC01EE0FFF1FED51F44D6115710551F0C7
:1025500060837183880F991FFC01E151F44D408322
:102560005183089520EC32E120833183880F991F35
:10257000FC01E151F44D10821182089585E0089527
:1025800081E008950C948212AB01BC0180E00C94B0
:102590009F12AB01BC0182E00C949F12E0EAF8E0CC
:1025A000108212828BE0868381E0838315821782FA
:1025B0001482108680E008959C019091062C93FF70
:1025C0000CC02093002C3093012C6093022C70934C
:1025D000032C892F877F8093062C0895E0EAF8E08A
:1025E00083818F7383830895E0EAF8E08581806CAE
:1025F000858308958091A50882FB882780F9089536
:102600000E94FA12882341F08091062C8D7F8093DE
:10261000062C82E08093052C8091062C81FD0DC054
:102620008B7F8093062C8FEF8093FF2B0E94F412F8
:102630000E94EE128091052C089581E0089580910A
:10264000A50883FB882780F90895E0EAF8E08481F3
:102650008860848385818160858308950E94251325
:10266000E6E0FCE280818D7F808382E08093052C10
:102670008EE008950E942513E6E0FCE280818D7FC4
:1026800080831092052C8EE008959091062C92FD87
:1026900043C08093FF2B892F887F9EE09093042C6A
:1026A00024EF31E02093FD2B3093FE2B8460886073
:1026B0008093062C80EC92E18093E32B9093E42BA3
:1026C0001092EF2B1092F02B8093E52B9093E62B3A
:1026D0001092F12B1092F22B8093E72B9093E82B22
:1026E0001092F32B1092F42B8093E92B9093EA2B0A
:1026F0001092F52B1092F62B8EEB92E18093EB2B40
:102700009093EC2B1092F72B1092F82B0E9425132C
:102710000E94F41280E0089581E00895E0EAF8E074
:102720008481826084830895E0EAF8E0858188608E
:10273000858308950E94941382E08093052CE09194
:10274000E52BF091E62B8091F12B9091F22B0995DE
:10275000823021F0833021F40C9491120C94821277
:102760000C943A138091A50887FD04C08091A508B8
:1027700086FFF8CF0895E0EAF8E0848183608483DF
:1027800008950E94BB13E6E0FCE280818D7F808388
:102790001092052C80E008958091062C8E7F809306
:1027A000062C82E08093052CE091E72BF091E82B3A
:1027B0008091F32B9091F42B0995823021F0833096
:1027C00021F40C9491120C9482120C94C1138091F8
:1027D000A5088295817008950E94F4128091062CBC
:1027E00080FF07C00E94E713882319F08FE08093D1
:1027F000042C0E941F13882319F080E18093042C7D
:102800000E94FA12882319F081E18093042CE09150
:10281000042CF0E0EE0FFF1FE557F74D0190F0811B
:10282000E02D09958093042C08958091062C81FF5A
:1028300005C00E94B2130E94EC13F7CF0895909147
:10284000062C91FD10C092609093062C882311F005
:1028500081E001C082E08093042C0E94EC130E946E
:10286000151480E0089581E0089580E00C941F1411
:102870000E94E713882399F0E091E92BF091EA2B6D
:102880008091F52B9091F62B0995823021F08330C1
:1028900021F40C9491120C9482120C94C113809127
:1028A000062C8E7F8093062CE091002CF091012C59
:1028B000CF0101968093002C9093012C808180930E
:1028C000A8088091022C9091032C01978093022CF0
:1028D0009093032C892B11F485E0089583E00895EB
:1028E0000E94E713882371F0E091E92BF091EA2B25
:1028F0008091F52B9091F62B09958230B9F08330B9
:10290000B9F01AC08091062C88608093062CE09163
:10291000E32BF091E42B8091EF2B9091F02B099514
:10292000833031F0843031F0823031F40C948212F3
:102930000C9491120C9438140C94C113E0EAF8E052
:1029400084818B7F848308950E949E1483E0089580
:102950000E949E1484E00895E0EAF8E08481846097
:10296000848308950E94AC1488E008950E94AC14FA
:102970000E94BB13E6E0FCE280818D7F8083109291
:10298000052C80E008958091062C8E7F8093062C84
:102990008091022C9091032C019719F40E94AC14A1
:1029A00002C00E949E148091022C9091032C0197EA
:1029B0008093022C9093032CE091002CF091012C39
:1029C000892B81F08091A80880838091002C9091C0
:1029D000012C01968093002C9093012C0E948E1361
:1029E00084E008958091A80880838091002C9091C4
:1029F000012C01968093002C9093012C8091062C41
:102A000088608093062CE091E32BF091E42B809179
:102A1000EF2B9091F02B09958250823020F40E9488
:102A2000AC1488E008950C94B61483E00895E0E0B7
:102A3000F6E081E0868B1182128213821482148662
:102A400011868287168299E19583148A158A128AE3
:102A5000138A808380E00895E0E0F6E0868391E0C9
:102A600090872089318993871092072CC901089596
:102A70001F920F920FB60F9211242F933F934F93F3
:102A80005F936F937F938F939F93AF93BF93EF93D6
:102A9000FF93E091082CF091092C309709F00995EB
:102AA00082E080930B06FF91EF91BF91AF919F91D0
:102AB0008F917F916F915F914F913F912F910F90E7
:102AC0000FBE0F901F9018951F920F920FB60F9286
:102AD00011248F9381E08093072C80930B068F91B4
:102AE0000F900FBE0F901F9018950F931F93CF93C9
:102AF000DF931F92CDB7DEB7082F1BE061E070E0D7
:102B0000CE0101960E94BB18811102C08FEF18C040
:102B10009981003F21F4892F807F803F89F009133C
:102B20000AC061E070E0CE0101960E94BB188823C4
:102B300069F3898105C09111E9CF1150F9F6E6CF0B
:102B40000F90DF91CF911F910F910895EF92FF9217
:102B50000F931F93CF93DF937C01EB012097C9F074
:102B60008E01C13080E2D80710F000E010E280EF63
:102B70000E9475158C7011F081E00CC0B801C7017E
:102B80000E94BB188823C1F3E00EF11EC01BD10BBD
:102B9000E5CF80E0DF91CF911F910F91FF90EF90F3
:102BA0000895CF93DF93EC0170E00E945F188823B3
:102BB00041F088810E94751591E0811103C090E079
:102BC00001C091E0892FDF91CF9108950F931F935A
:102BD000CF93DF93CDB7DEB72897CDBFDEBF8A0195
:102BE0006F3F71058105910509F048F424EC2D83B0
:102BF00020E82E83982F872F762F662703C02AEC94
:102C00002D838E837F83688764E0CE0105960E94C2
:102C1000D115811112C064E070E0CE0101960E94CE
:102C2000A61581110AC049815A816B817C81F80106
:102C3000408351836283738301C081E02896CDBFB6
:102C4000DEBFDF91CF911F910F910895CF92DF9258
:102C5000EF92FF92CF93DF93CDB7DEB72897CDBF2A
:102C6000DEBFE091AF28EE2311F081E025C0E1E066
:102C7000E093AF28613371058105910540F4E3ECE1
:102C8000E983E0E8EA83FE013396A7E007C0E9ECB8
:102C9000E9838A837B83FE013496A8E060835183B5
:102CA0004283338324836A2FCE0101960E94D1157B
:102CB0008111DBCF1092AF282896CDBFDEBFDF9108
:102CC000CF91FF90EF90DF90CF9008959F92AF92B9
:102CD000BF92CF92DF92EF92FF920F931F93CF9309
:102CE000DF93CDB7DEB72897CDBFDEBF5A0189018C
:102CF000FE01319697E0DF011D929A95E9F797EC76
:102D000099839091AF28992319F0DD24D39442C080
:102D100091E09093AF282130310511F402E010E0EA
:102D20008A837B836C831E830F8367E0CF010E94BD
:102D3000D115D82E8111E9CF81EF888793EFC92E65
:102D400022EF922E01151105F1F078010130B0E269
:102D50001B0718F0E12C80E2F82E0E191F0909F468
:102D6000C88661E070E0CE0108960E945F18882353
:102D700061F2B701C5010E945F18882331F298867D
:102D8000AE0CBF1CDFCF83EC0E9475158111BDCF47
:102D90001092AF288D2D2896CDBFDEBFDF91CF9149
:102DA0001F910F91FF90EF90DF90CF90BF90AF9069
:102DB0009F900895DF92EF92FF920F931F93CF930E
:102DC000DF93CDB7DEB72997CDBFDEBFFE013196C9
:102DD00097E0DF011D929A95E9F798EC998390911D
:102DE000AF28992319F0DD24D3942CC091E090935F
:102DF000AF288A837B836C832130310519F482E00C
:102E00008F8302C03E832F8389017A0167E0CF015F
:102E10000E94D115D82E8111E6CF0130110551F451
:102E200062E070E0CE0108960E94A6159885F70131
:102E3000908304C0B801C7010E94A6158111D3CFA9
:102E40001092AF288D2D2996CDBFDEBFDF91CF9197
:102E50001F910F91FF90EF90DF9008951092AF288F
:102E600069E08CE597EA0C94D1151092AF2865E0E3
:102E700087E597EA0C94D11581E08093AF2880E034
:102E80000895CF93DF9300D000D0CDB7DEB7209167
:102E9000AF28222321F060E070E0CB0110C021E0D8
:102EA0002093AF28AE014F5F5F4F0E94E61581115E
:102EB000F2CF1092AF2869817A818B819C81249610
:102EC000CDBFDEBFDF91CF9108952091AF2822239F
:102ED00011F081E0089521E02093AF280E94E615CB
:102EE0008111F7CF1092AF2808958F929F92AF92E1
:102EF000BF92CF92DF92EF92FF92CF93DF9300D0F9
:102F000000D0CDB7DEB74B015C0169017A01AE019B
:102F10004F5F5F4F0E94651749815A816B817C81A9
:102F2000DB01CA018C219D21AE21BF21C816D90623
:102F3000EA06FB0671F09A01AB012C293D294E29C6
:102F40005F2929833A834B835C83C501B4010E94C6
:102F500026168091AF282496CDBFDEBFDF91CF919A
:102F6000FF90EF90DF90CF90BF90AF909F908F90A9
:102F700008958F929F92AF92BF92CF92DF92EF927D
:102F8000FF92CF93DF9300D000D0CDB7DEB76B01B7
:102F90007C0149015A01AE014F5F5F4F0E946517E6
:102FA00089819A81AB81BC81AC01BD014821592145
:102FB0006A217B21452B462B472BA1F0B501A401AB
:102FC00040955095609570959A01AB01282339235F
:102FD0004A235B2329833A834B835C83C701B60171
:102FE0000E9426168091AF282496CDBFDEBFDF91C8
:102FF000CF91FF90EF90DF90CF90BF90AF909F90D8
:103000008F9008958091AF280895B29905C080915E
:103010000A2C8F5F80930A2C089581E090910A2CEE
:10302000911101C080E00895882391F08091B2044D
:10303000887F8093B20480910A2C882319F08150F4
:1030400080930A2C8091B204887F83608093B204BD
:1030500081E0089510920A2C85E098E10E947B118E
:10306000789481E00895CF92DF92EF92FF926B0106
:103070007C01C114D104E104F10451F081E090E03D
:103080000E94172781E0C81AD108E108F108F1CFA2
:10309000FF90EF90DF90CF90089588E08093A50493
:1030A000089588E08093A604089582E08093060442
:1030B000089582E080930504089581E00895AF9219
:1030C000BF92CF92DF92EF92FF920F931F93CF9315
:1030D000DF93009709F443C0EB018C01E09145A711
:1030E000F09146A7099580E8809306046E01580187
:1030F000E0904BA7F0904CA780E8C816D10460F090
:1031000060E870E0C501F7010995F0E8CF1AD10831
:1031100040E8A40EB11CF0CF9E01220F232F221FE6
:10312000330B319590E8D92E4D2D4203B001439FCA
:10313000700D11246C0F7D1FC9019695982F88275B
:1031400097958795800F911FF7010995D0920504F7
:10315000E09143A7F09144A7099581E001C080E088
:10316000DF91CF911F910F91FF90EF90DF90CF9063
:10317000BF90AF900895AF92BF92CF92DF92EF923F
:10318000FF920F931F93CF93DF93009709F443C0EF
:10319000EB018C01E09145A7F09146A7099580E8E5
:1031A000809306046E015801E0904DA7F0904EA761
:1031B00080E8C816D10460F060E870E0C501F7014E
:1031C0000995F0E8CF1AD10840E8A40EB11CF0CF61
:1031D0009E01220F232F221F330B319590E8D92E09
:1031E0004D2D4203B001439F700D11246C0F7D1FC4
:1031F000C9019695982F882797958795800F911FDD
:10320000F7010995D0920504E09143A7F09144A7F6
:10321000099581E001C080E0DF91CF911F910F916E
:10322000FF90EF90DF90CF90BF90AF90089581E036
:103230000895CF93DF93D82F0E945D18811102C0AB
:10324000C1E02EC00E9451180E94551862E370E040
:1032500080E090E00E9433180E944D186AE070E010
:1032600080E090E00E9433180E9459186AE070E0F4
:1032700080E090E00E9433180E942E17C82F811121
:10328000DFCFDD2369F00E949E1C8823C9F220E075
:1032900030E0A90160E073E082E090E00E94261631
:1032A0008C2FDF91CF9108950E94B91C811106C027
:1032B0000E9417190E943C1781E0089580E008954C
:1032C00008958091122C91E0980F9093122C811107
:1032D00008C080910B2C882321F00E94541C882365
:1032E00011F080E0089584EF08958091122C8823D6
:1032F00019F081508093122C8091122C811108C0FA
:1033000080910B2C882321F00E941C1C882311F033
:1033100080E0089584EF08951092122C10920B2CE7
:1033200080E008952F923F924F925F926F927F922A
:103330008F929F92AF92BF92CF92DF92EF92FF92C5
:103340000F931F93CF93DF93CDB7DEB72C97CDBFED
:10335000DEBF962F9F779A8789870115110529F07F
:10336000F7013896EC0DFD1D02C0F9013896EB8788
:10337000FC87EB85FC85ED33F64008F050C0360144
:1033800059016A01962E882E0E946119811147C049
:103390002B853C85C901A0E0B0E0DC019927882796
:1033A00088299C01AD0139292D833E834F8358879D
:1033B0006CE870E180E090E00E94261622E030E0A8
:1033C00040E050E068E770E180E090E00E9426165F
:1033D00019821A821B821C8248EE842E43E0942EAE
:1033E0000BC085EF881681E0980630F461E070E04C
:1033F00080E090E00E94331891E0891A9108E8F08B
:10340000AE014B5F5F4F68E770E180E090E00E94A3
:1034100065170E940218882321F00E9475198FEF0A
:103420005AC08D8181FDDDCFAE014F5F5F4F60E0FF
:1034300074E085E190E00E9465170E9402188111F6
:1034400009C029803A804B805C80211431044104FA
:10345000510421F40E9475198DEF3DC028E030E041
:10346000AE01475F5F4FC201B1010E94661698E04E
:10347000290E311C411C511CC114D10431F095019D
:10348000A601C201B1010E9466160115110551F095
:10349000C201B101660D771D811D911D9701A80123
:1034A0000E94661689819A81AB81BC8122E0880FD7
:1034B000991FAA1FBB1F2A95D1F79C01AD0122605D
:1034C0006CE670E180E090E00E9426160E9475197B
:1034D0000E94021881952C96CDBFDEBFDF91CF915F
:1034E0001F910F91FF90EF90DF90CF90BF90AF9022
:1034F0009F908F907F906F905F904F903F902F9014
:103500000895CF92DF92EF92FF920F931F93C12CF9
:10351000D12CE12CF12C00E010E00E9492191F91B7
:103520000F91FF90EF90DF90CF900895CF93DF93AE
:10353000CDB7DEB72897CDBFDEBF0E940D18882318
:1035400009F48EC0AE014B5F5F4F60E770E180E031
:1035500090E00E946517882311F084EF86C08D816A
:103560009E81AF81B88580FFF8CF9C01AD012E7F91
:103570002D833E834F83588760E770E180E090E0C1
:103580000E9426168111E9CF8D819E81AF81B88579
:1035900022E0B695A795979587952A95D1F79F70C4
:1035A00080930C2C90930D2C892B09F45BC04EE07A
:1035B0005CE264E870E180E090E00E9465178111B0
:1035C000CCCF60910E2C70910F2C8091102C90918B
:1035D000112C24E030E0AE014F5F5F4F0E94DA16FD
:1035E0008111BBCF6B817C8180910C2C90910D2C33
:1035F000861B970B0597C0F5E9818FEF8E0F8730FB
:1036000008F0ABCF80910E2C90910F2CA091102C34
:10361000B091112C9C01AD01285F3F4F4F4F5F4F80
:1036200068507109F0E0EE0FFF1FED59F845019069
:10363000F081E02D8A81099581E00E94141822E032
:1036400030E040E050E060E770E180E090E00E9410
:10365000751780E00E9414180E94021881117DCF16
:1036600080E003C08EEF01C08AEF2896CDBFDEBF99
:10367000DF91CF9108958F929F92AF92BF92CF9298
:10368000DF92EF92FF92E0910C2CF0910D2CE2175B
:10369000F30710F484EF20C0C0900E2CD0900F2CB4
:1036A000E090102CF090112C6C157D058E059F0577
:1036B00088F3CE0EDF1EE11CF11C4B015C01820E73
:1036C000931EA11CB11CC814D904EA04FB0410F316
:1036D0000E94DA168111DECFFF90EF90DF90CF903D
:1036E000BF90AF909F908F90089520E031E040E030
:1036F00050E068E074E180E090E00E94751781116D
:103700000CC020E030E041E050E060E07AE180E091
:1037100090E00E94751791E0811190E0892F089543
:10372000CF92DF92EF92FF92CF93DF9300D000D041
:10373000CDB7DEB7C090132CD090142CE090152C90
:10374000F090162CC114D104E104F10409F068C012
:10375000AE014F5F5F4F64EF73E180E090E00E9445
:10376000651781115DC043E15CE260E070E180E0DB
:1037700090E00E946517811153C08091132C9091A5
:10378000142CA091152CB091162C803A22E09207AF
:1037900020E1A207B10569F489819A81AB81BC81DE
:1037A0000197A105B10541F181EA92E0A0E1B0E005
:1037B0001BC0803B9240A041B105F1F489819A8100
:1037C000AB81BC8183309105A105B105A9F00497B7
:1037D000A105B10529F481EB92E0A0E1B0E004C0BD
:1037E00082EB92E0A0E1B0E08093132C9093142C34
:1037F000A093152CB093162CC090132CD090142CA1
:10380000E090152CF090162C80EFE82225E0E22ABB
:10381000C092132CD092142CE092152CF092162CFE
:10382000C701B6012496CDBFDEBFDF91CF91FF90D7
:10383000EF90DF90CF900895CF93DF9300D000D02A
:10384000CDB7DEB70E940218882311F080E026C0B1
:10385000AE014F5F5F4F60E170E080E090E00E945A
:1038600065178111F3CF898180FDF2CF22E030E02E
:1038700040E050E061E070E080E090E00E94B91725
:1038800021E030E040E050E06BE070E080E090E06C
:103890000E94B9170E94021891E089272496CDBF93
:1038A000DEBFDF91CF9108950F931F93CF93DF93E6
:1038B00000D000D0CDB7DEB721E030E040E050E0EE
:1038C0006BE070E080E090E00E94751722E030E04D
:1038D00040E050E061E070E080E090E00E94751709
:1038E0000E940218182F811115C005E006C062E081
:1038F00070E080E090E00E9433180150A1F0AE012A
:103900004F5F5F4F6FE070E080E090E00E946517CE
:10391000882311F010E009C0898182FFE8CF0E945E
:10392000351711E002C00E943517812F2496CDBFB4
:10393000DEBFDF91CF911F910F91089521E030E01C
:1039400040E050E068E171E180E090E00E9475178E
:1039500081110CC020E034E040E050E060E074E110
:1039600080E090E00E94B91791E0811190E0892FEA
:1039700008954F925F926F927F92BF92CF92DF92A3
:10398000EF92FF920F931F93CF93DF9300D000D05D
:10399000CDB7DEB7B82EF62E29013A0120E030E08F
:1039A000A9016CE070E0CB010E94261620E030E017
:1039B000A9016CE870E180E090E00E94261620E00A
:1039C00030E0A9016CEA77E082E090E00E942616E0
:1039D00021E030E040E050E068E171E180E090E01B
:1039E0000E947517882311F080E0BAC020E034E00F
:1039F00040E050E060E074E180E090E00E947517E4
:103A00008111F2CF64E170E180E090E00E94411703
:103A100097FFF8CF6CEB77E082E090E00E944117CF
:103A200060FF0DC0BB2019F12DE735ED4CE15CE3E3
:103A30006CEA77E082E090E00E94261621C000ED5B
:103A400017E00150110970F361E070E080E090E050
:103A50000E9433186CE070E0CB010E9441176E3970
:103A6000704D8D4A904169F7012BE1F6BDCFFF20E3
:103A700039F090E8C92EDD24D394E12CF12C04C058
:103A8000C12CD12C7601D394A30192016CE870E192
:103A900080E090E00E9426160E94901BDC01CB0182
:103AA0009F70AA27BB27803A9340A105B10510F06B
:103AB0006894C1F8A701960160EA74E180E090E0A3
:103AC0000E942616AE014F5F5F4F60EA74E180E00E
:103AD00090E00E946517811109C089819A81AB81AC
:103AE000BC81C816D906EA06FB0621F721E63FE2AB
:103AF00042E55FEE6CE070E0CB010E94261601ED1E
:103B000017E00150110909F46FCF62E070E080E026
:103B100090E00E943318B11017C06CE870E180E0AB
:103B200090E00E944117663376428345924049F700
:103B300020E030E0A9016CE870E180E090E00E94B4
:103B400026160E94751B0CC06CEA77E082E090E0BC
:103B50000E944117633C714C8D45974D91F681E071
:103B60002496CDBFDEBFDF91CF911F910F91FF90C3
:103B7000EF90DF90CF90BF907F906F905F904F90CD
:103B80000895CF92DF92EF92FF920F931F93CF93FE
:103B9000DF93CDB7DEB72C97CDBFDEBF8C01AE0172
:103BA000475F5F4F68E070E08CE090E00E9465172F
:103BB000811133C089859A85AB85BC85BC01CD0157
:103BC000836028E030E0AE014F5F5F4F0E94DA165D
:103BD000811123C089819A81AB81BC816C017D01F7
:103BE000CC24DD24CD28CE28CF2831F486E0F8017E
:103BF00011928A95E9F711C0CD01AA27BB278983C5
:103C00009A83AB83BC83BC01CD01836026E030E0A6
:103C1000A8010E94DA1691E0811190E0892F2C967C
:103C2000CDBFDEBFDF91CF911F910F91FF90EF903D
:103C3000DF90CF9008950F931F93CF93DF93F901F7
:103C4000D801445D5F4F309709F455C0228133811C
:103C5000232B09F450C09481913208F04CC0109786
:103C600009F447C090E3E80119929A95E9F74D935A
:103C70005C931197813051F080F08230E1F512961B
:103C80008C911297826012968C93129712968C9157
:103C90001297816012968C93129785818F3F19F04D
:103CA00081508E3040F513968C9313978FEF860FCB
:103CB000843008F5ED018F016CA784818C834481E9
:103CC00050E062817381CD0105960E944631F80172
:103CD00080819181892B89F081E08DA3DE01969608
:103CE0000190F081E02D86E001900D928A95E1F738
:103CF00004C084EF03C081EF01C080E0DF91CF9169
:103D00001F910F910895DC01FB01442369F090811C
:103D100090539A3058F090628FEC890F863010F0F3
:103D200081EF0895975202C080E008959295907FA8
:103D30009C93218120532A3030F020628FEC820F37
:103D4000863070F72752290F2D9332964150DDCFE0
:103D5000AF92BF92CF92DF92EF92FF921F93CF93D9
:103D6000DF93CDB7DEB7CC56D109CDBFDEBF182F5C
:103D700069017A0180EBA82E88E2B82EF5018081D6
:103D80008E33B1F1811330C0D50111962D913C9144
:103D900012972115310539F4E091182CF091192C66
:103DA000309759F425C0AE014F5F5F4FC701B60190
:103DB0000E943B1B811146C0EFCFD50111968D911A
:103DC0009C911297892B59F0113129F41092172CDC
:103DD000898180931B2CBE016F5F7F4F02C060E022
:103DE00070E0812F099504C0B3E0AB0EB11CC6CFC3
:103DF000103241F528E030E0AE014B595F4FC7016A
:103E0000B6010E943B1B81111DC0AB962EAD3FAD8C
:103E1000AB97A7964EAD5FADA797C701B601685F98
:103E20007F4F8F4F9F4F0E943B1B81110BC0E09132
:103E3000182CF091192C309729F0BE016B597F4F47
:103E400080E20995C459DF4FCDBFDEBFDF91CF912E
:103E50001F91FF90EF90DF90CF90BF90AF900895AB
:103E600080E00E941919811104C091E090931A2CEE
:103E7000089584EF08950C94961A20E030E040E015
:103E800050E069E281E00C94811A0F931F93CF9365
:103E9000DF93CDB7DEB7E097CDBFDEBF9B018E01CC
:103EA0000F5F1F4F40E050E061E00E941B1E811138
:103EB00007C020E330E0A8016BE381E00E94811A93
:103EC000E096CDBFDEBFDF91CF911F910F91089596
:103ED000CF92DF92EF92FF920F931F93CF93DF93D6
:103EE000CDB7DEB7C054D109CDBFDEBFFA013097E0
:103EF000B9F120813181232B99F193819150943034
:103F000078F592819F7E9A3059F57A019B018E0156
:103F10000F5F1F4F40E150E063E00E941B1E8111C4
:103F200020C0F7018381815089AB428146954AAB1D
:103F300060817181CE01C3960E94831E80E3C82EEA
:103F4000D12C90E1E92EF12C005D1F4F20E330E0F1
:103F5000AE014F5F5F4F6BEB81E00E94921901C091
:103F600081EFC05CDF4FCDBFDEBFDF91CF911F91EE
:103F70000F91FF90EF90DF90CF900895AF92BF9296
:103F8000CF92DF92EF92FF920F931F93CF93DF9325
:103F9000CDB7DEB7CC59D109CDBFDEBF4115510534
:103FA00009F453C07A019B018E0103591F4F4CE65F
:103FB00050E062E00E941B1E182F811147C0CE0105
:103FC00001965C018CE6F50111928A95E9F7F701FB
:103FD000608171818281938161157105B9F0892BAE
:103FE000A1F580E4898340E2CE0102960E94831EFF
:103FF000811111EF498150E0F70160817181CE019B
:1040000002960E944631112371F020C00097E9F01A
:10401000F70144814134C8F4498350E0BC01CE012A
:1040200002960E94463180E3C82ED12C9CE6E92EF0
:10403000F12C850120E330E0AE0143595F4F6BEB7B
:1040400081E00E949219182F01C011EF812FC456F0
:10405000DF4FCDBFDEBFDF91CF911F910F91FF905A
:10406000EF90DF90CF90BF90AF900895CF92DF9206
:10407000EF920F93CF93DF93CDB7DEB72B97CDBFE2
:10408000DEBF6C01F90119821A828B839C836D83D8
:104090000E83E11002C082E001C080E06132D8F0FE
:1040A0004230E9F048F4413009F052C0BE016F5F80
:1040B0007F4F0E94451F4DC0433089F1443009F4C1
:1040C00043C046C0615048F09601260F311DD9010A
:1040D0002C912111F7CF962FF5CF9D83E1CF30970B
:1040E000B9F11F82188619861A861B86DF010D908A
:1040F0000020E9F71197AE1BBF0BA034B10519F4EE
:10410000EF83F88703C0E987FA87AB87AE01495F81
:104110005F4FBE016F5F7F4F0E94BE1F1AC0309776
:10412000B9F09F012E5F3F4F2F83388791819150C7
:10413000998790819A87AE01495F5F4FBE016F5F9B
:104140007F4F0E94681F05C0EF2B11F084EF01C064
:1041500081EF2B96CDBFDEBFDF91CF910F91EF9016
:10416000DF90CF900895EF920F931F93E12C0E9460
:1041700036201F910F91EF90089520E030E040E04D
:1041800050E06BE281E00C94811A0F931F93CF9360
:10419000DF938C01EB010E946119882311F084EFF9
:1041A0000BC0C8010E94C11D182F0E9475198111F2
:1041B000F6CF209709F01883DF91CF911F910F91CF
:1041C00008950F931F93CF938C010E946119811161
:1041D00010C0B80181E00E947121C82F0E9475199A
:1041E000C11106C0C801CF911F910F910C943D21C0
:1041F0008C2FCF911F910F910895CF93DF93CDB75F
:10420000DEB7A697CDBFDEBF009709F1FC01808124
:1042100091818093182C9093192C1092172C21E6E1
:1042200033E140E353E160E080E00E9454198823C9
:1042300011F08BEF0DC082E080931A2C0E948C1934
:104240008111F7CFCE0101960E94E12001C081EFDC
:10425000A696CDBFDEBFDF91CF910895CF93DF93B8
:10426000EC010E94301F811105C0CE01DF91CF917A
:104270000C94FD20DF91CF910895FC01892B69F109
:10428000248130E0322F222786818F70A901482BAC
:10429000258180E1289F900111243327242B352B81
:1042A000678170E0762F662781858F70682B408547
:1042B00080E1489FA00111245527CB01842B952B29
:1042C0002115310551F0009741F08236934138F4C1
:1042D0002136334120F080E0089581EF089583EF87
:1042E0000895FF920F931F93CF93DF93CDB7DEB75F
:1042F0002C97CDBFDEBF6115710509F446C08B0157
:10430000F82E86E2FB0111928A95E9F7AE01475F2C
:104310005F4F68E070E08CE090E00E9465178823B2
:1043200021F080E090E0DC0118C089859A85AB859A
:10433000BC850097A105B105A1F3BC01CD01836047
:1043400028E030E0AE014F5F5F4F0E94DA16811126
:10435000E8CF8D819E81AF81B885AA27BB270097C2
:10436000A105B10511F484EF11C0F11003C080E084
:1043700090E0DC01BC01CD01836026E230E0A801C1
:104380000E94DA16882311F0EECF81EF2C96CDBF74
:10439000DEBFDF91CF911F910F91FF9008952F9273
:1043A0003F924F925F926F927F928F929F92AF92C5
:1043B000BF92CF92DF92EF92FF920F931F93CF9312
:1043C000DF93CDB7DEB7C455D109CDBFDEBF5B01EA
:1043D00069017A01813411F08435D9F424E030E0A8
:1043E000AE014F5F5F4FC701B6010E943B1B8111B9
:1043F0000DC28A8126968FAF2697E091272CF091E7
:10440000282C309709F402C2AE014B5B5F4F61E08C
:104410001CC08234E9F424E030E0AE014F5F5F4F0E
:10442000C701B6010E943B1B8111F0C18A8126960B
:104430008FAF2697E091272CF091282C309709F424
:10444000E5C1AE014B5B5F4F62E089810995DEC13A
:10445000833409F073C02CE030E0AE014B5B5F4F5A
:10446000C701B6010E943B1B8111D0C12F963FAD01
:104470002F9737FD3FC0432F032E000C550B2E9670
:104480002FAD2E976BE02603F0011124E55DF34D6F
:104490008185649FF001659FF00D1124E55DF34D6A
:1044A000818781E0808761968EAD9FAD6197089787
:1044B000868397838091292C90912A2CBC016F5F71
:1044C0007F4F29F06093292C70932A2C05C0029607
:1044D0008093292C90932A2C8BE0849FF001859F58
:1044E000F00D1124E55DF34D8091292C90912A2C3B
:1044F00084839583398382E090E08A839B83299625
:104500008EAD9FAD29978C839D832D968CAD9DADEF
:10451000AEADBFAD2D978E839F83A887B987E091FD
:10452000272CF091282C309709F470C1AE014F5F11
:104530005F4F64E02E968FAD2E9788CF843411F0B4
:104540008B3469F524E030E0AE014F5F5F4FC70167
:10455000B6010E943B1B811159C1898126968FAFFC
:1045600026979A8127969FAF279791110CC09BE0C1
:104570008902F0011124E55DF34D2B813C81285027
:10458000310926833783E091272CF091282C30972E
:1045900009F43CC1AE014B5B5F4F65E057CF8A34F5
:1045A000E1F424E430E0AE014F5F5F4FC701B60194
:1045B0000E943B1B81112AC1E091252CF091262CF1
:1045C000309709F423C125964CAD5DAD6EAD7FAD3E
:1045D0002597CE010196099519C1863429F08834B2
:1045E00031F08D3409F0ADC096E0992E02C089E01B
:1045F000982E20E130E0AE014B5B5F4FC701B60162
:104600000E943B1B811102C162968FAC6297659636
:104610004EAD5FAD6597882D9BE08902F0011124B6
:10462000E55DF34D12862F968EAD9FAD2F97619667
:104630006EAD7FAD619729962EAD3FAD2997298745
:104640003A872D960CAD1DAD2EAD3FAD2D970B8746
:104650001C872D873E87248135814217530709F037
:10466000D5C0181619060CF05BC08C018A159B0585
:1046700008F056C080819181892B09F4C7C08281DE
:104680009381892B09F4C2C08085813009F0BEC0B6
:1046900026013701460E571E611C711C0D831E83B7
:1046A0005F011F01E2E02E0E311C6501F8E0CF0E24
:1046B000D11CF101E080F1800E151F0508F478018E
:1046C000F501408151819701C301B2010E943B1B5A
:1046D00081119CC0F5018081918189839A83EB824D
:1046E000FC828D819E818E199F098D839E83E0912E
:1046F000272CF091282C309731F0AE014F5F5F4F9F
:10470000692D882D09954E0C5F1C611C711CF601EA
:104710008081882309F47AC00E191F0951F676C0EA
:104720008B839C8319821A82E091272CF091282C8C
:10473000309709F46BC0AE014F5F5F4F692D882D34
:1047400085CE853421F0873421F08C3469F517E06B
:1047500001C018E028E030E0AE014F5F5F4FC701B5
:10476000B6010E943B1B811151C089814D815E8140
:104770002B813C8127962EAF3FAF27979BE0890284
:10478000F0011124E55DF34D248135814217530773
:10479000E9F5E091272CF091282C3097B9F1AE0182
:1047A0004B5B5F4F612F52CE823581F524E130E0C3
:1047B000AE014F5F5F4FC701B6010E943B1B8111E5
:1047C00025C04D815E816F81788580911E2C9091EE
:1047D0001F2CA091202CB091212C481759076A0753
:1047E0007B0781F4E091222CF091232C309751F03B
:1047F00029853A854B855C8569817A818B819C818D
:10480000098909951092222C1092232CCC5ADF4F43
:10481000CDBFDEBFDF91CF911F910F91FF90EF9041
:10482000DF90CF90BF90AF909F908F907F906F90D0
:104830005F904F903F902F9008958091242C81118C
:104840000EC089E7EBE2FCE2DF011D928A95E9F7F1
:1048500081E08093242C1092292C10922A2C089508
:104860008093272C9093282C6093252C7093262CD2
:104870000895EF92FF921F93CF93DF9300D000D063
:10488000CDB7DEB7029709F071C0613009F510911C
:104890001D2C27E03BE087E0E82EF12C812F90E0F3
:1048A000389FF001399FF00D1124E55DF34D01961D
:1048B000B7010E94F92F9085911103C080931D2CA0
:1048C00027C02150182F51F780931D2C1FEF20C0B7
:1048D000623009F04BC010911C2C24E08BE0189F33
:1048E000F0011124E858F34D812F90E00196837078
:1048F00099273085311104C080931C2C195F06C0A4
:104900002150182F59F780931C2C1FEF309779F105
:104910008BE0DF011D928A95E9F781E08087809125
:10492000292C90912A2C9C012F5F3F4F29F0209336
:10493000292C30932A2C05C002968093292C909321
:104940002A2C8091292C90912A2C8483958340FFD6
:104950000EC0198381E2818724E030E0AE014F5F11
:104960005F4F60E582E00E94811A01C01FEF812F36
:104970002496CDBFDEBFDF91CF911F91FF90EF90C6
:104980000895CF93DF93CDB7DEB72C97CDBFDEBFB1
:10499000FB0187FD3BC03097C9F1282F082E000C82
:1049A000330B9BE08902D0011124A55DB34D18960D
:1049B0009C911897992351F1442341F119969C91A8
:1049C00090FF03C09A876BE401C064E4898788E0A4
:1049D000DE01119601900D928A95E1F78BE0829F9E
:1049E000F001839FF00D1124E55DF34D84819581E5
:1049F0008B879C872CE030E0AE014F5F5F4F82E0F9
:104A00000E94811A882319F087EF01C08AEF2C9643
:104A1000CDBFDEBFDF91CF910895CF92DF92EF92AD
:104A2000FF920F931F93CF93DF93CDB7DEB76097BD
:104A3000CDBFDEBF87FD44C06115710509F440C0DC
:104A4000493795E05907E0F5A82F082E000CBB0B5D
:104A50009BE08902F0011124E55DF34D90859923D7
:104A600079F189834B835C83248135812D873E874F
:104A700087301CF024E430E002C020E530E08BE019
:104A80008A9FF0018B9FF00D1124E55DF34D818528
:104A900080FF04C0268137818CE401C085E47A015F
:104AA0008B01682F6068690120E130E0AE014F5F43
:104AB0005F4F82E00E949219882319F082EF01C0B3
:104AC0008AEF6096CDBFDEBFDF91CF911F910F912E
:104AD000FF90EF90DF90CF9008950F931F93CF93A7
:104AE000DF93CDB7DEB72897CDBFDEBF87FD49C0C6
:104AF0006115710509F445C04115510509F441C01E
:104B0000A82F082E000CBB0B9BE08902F00111249A
:104B1000E55DF34D90859923A1F160837183428314
:104B20005383928591112BC091E09287918590FFDC
:104B300002C06DE401C066E40115110521053105CF
:104B400019F40FEF1FEF980109831A832B833C831D
:104B50008D838BE08A9FF0018B9FF00D1124E55D22
:104B6000F34D848195818F83988728E030E0AE01F2
:104B70004F5F5F4F82E00E94811A811104C080E084
:104B800003C08AEF01C082EF2896CDBFDEBFDF9160
:104B9000CF911F910F9108950F931F93CF93DF93A0
:104BA00000D000D0CDB7DEB787FD2FC0082F082E6C
:104BB000000C110B9BE08902F0011124E55DF34D1F
:104BC0009085992311F18983848195818B839C83BE
:104BD000818580FF02C06EE401C069E424E030E01A
:104BE000AE014F5F5F4F82E00E94811A81110FC0BA
:104BF0009BE0909FF001919FF00D1124E55DF34D36
:104C0000DF011D929A95E9F703C08AEF01C087EF93
:104C10002496CDBFDEBFDF91CF911F910F910895F4
:104C20000F931F93CF93FC0100E010E0980180E008
:104C3000CAE0DF0190E04D914E3231F0442321F083
:104C40009F5F9430C1F709C0992339F0DF011196B5
:104C50006081913039F0603329F460E070E080E0E9
:104C600090E034C040E050E0FD01915080F070EDE4
:104C7000760F7A3090F7C49FF001C59FF00D112494
:104C8000AF01460F511D405351096D91EDCF4F3F7C
:104C9000510509F010F7611103C08330F1F602C02D
:104CA0008330D9F2012F122F232F332760E070E0D9
:104CB000742F662755274427042B152B262B372BBB
:104CC0008F5F843009F0B5CFB801C901CF911F9132
:104CD0000F910895CF93DF93CDB7DEB72C97CDBF5B
:104CE000DEBF6115710581059105B1F12115310511
:104CF00099F1DC01CB01E1E0F0E0E987FA878983F3
:104D00009A83AB83BC8380911E2C90911F2CA09121
:104D1000202CB091212C0196A11DB11D80931E2C39
:104D200090931F2CA093202CB093212C8D839E83D5
:104D3000AF83B8874B872093222C3093232C2CE011
:104D400030E0AE014F5F5F4F62E582E00E94811A62
:104D5000882319F087EF01C081EF2C96CDBFDEBF0D
:104D6000DF91CF910895462F68ED0C94A01060E07C
:104D700080E890E00E94B326E0E8F0E0118610861B
:104D800080E008951F920F920FB60F9211248F9317
:104D900081E080938A008F910F900FBE0F901F903B
:104DA000189560E088E790E00E94B32660E08CE709
:104DB00090E00E94B32660E080E790E00E94B32676
:104DC00061E181E690E00E94B32660E080E690E039
:104DD0000E94B32660E082E690E00E94B32680E065
:104DE000089560E080E590E00E94B32680E0089599
:104DF00060E080E091E00E94B32680E008950E9488
:104E0000E0100E94B7260E94F8260E94F1260E9418
:104E1000D1260E943F0F0E94CE120E9417150E94B9
:104E2000C7110E947D100E94AB0F0C94B80500972B
:104E300039F0E1E4F3E03197F1F700000197F7CFA3
:104E40000895CF93DF93CDB7DEB76D97CDBFDEBFAB
:104E5000CE0101962DE1FC0111922A95E9F722E09D
:104E60002D872AE030E02E873F8723E737EA2A8B19
:104E70003B8B0E9435086D96CDBFDEBFDF91CF9191
:104E80000895CF93DF93CDB7DEB72E97CDBFDEBFAA
:104E9000DC01CE0101962EE0FC0111922A95E9F782
:104EA000AA87BB87FD0101900020E9F73197EA1B33
:104EB000FB0BE887F98721E02E830E944F092E968D
:104EC000CDBFDEBFDF91CF910895CF93DF93CDB7F4
:104ED000DEB76097CDBFDEBFDE01119620E1FD0198
:104EE00011922A95E9F7888799876D877E87FB015C
:104EF00001900020E9F73197E61BF70BEC87CD0115
:104F00000E94D1086096CDBFDEBFDF91CF9108959A
:104F1000CF93DF938C32B9F4EB018881813039F47F
:104F200084E897EA0E94DC3183E00E948A28888125
:104F3000811109C08EE997EA0E94DC3181E0DF919E
:104F4000CF910C948A28DF91CF910895FF920F930F
:104F50001F93CF93DF93E901142FF52E8CEB97EA83
:104F60000E94DC31011117C0FF921F93DF93CF9392
:104F70008AEC97EA9F938F930E94C63180916404D4
:104F80008160809364040F900F900F900F900F90AA
:104F90000F9085E00CC0013019F48BEE97EA04C045
:104FA000023061F480E098EA0E94DC318AE0DF910F
:104FB000CF911F910F91FF900C948A28DF91CF9190
:104FC0001F910F91FF900895FF920F931F93CF931E
:104FD000DF93E901142FF52E8CEB97EA0E94DC3168
:104FE000011111C0FF921F93DF93CF938AEC97EAD0
:104FF0009F938F930E94C6310F900F900F900F9048
:105000000F900F9010C0013019F48BEE97EA04C096
:10501000023049F480E098EADF91CF911F910F911F
:10502000FF900C94DC31DF91CF911F910F91FF9095
:10503000089585E00E942C15BC0180E090E00E945C
:105040006D2B23E333E343E550E40E94FB2B20E088
:1050500030EC4FE754E40E94FB2A20E030E048ECBB
:1050600052E40E94FB2B9B01AC010E948F2A089501
:105070008F929F92AF92BF92CF92DF92EF92FF9268
:1050800065E088E10E9470066C01DD2488279F712D
:10509000292F332727FD3A95B901330F880B990B38
:1050A0000D2C000CEE08FF0824FF11C00E946F2B8E
:1050B00020E030E040E851E40E94FB2B9B01AC0172
:1050C00060E070E080E893E40E948E2A08C00E94AD
:1050D0006F2B20E030E040E851E40E94FB2B4B01B5
:1050E0005C01C701B6010E946F2B20E030E040E870
:1050F0005DE30E94FB2B9B01AC01C501B4010E9442
:105100008F2AFF90EF90DF90CF90BF90AF909F904D
:105110008F9008959091A62C98138093A62C0895B3
:105120009091A52C98138093A52C0895FF920F932E
:105130001F93CF93DF93F82EEA01663021F1673099
:1051400009F44AC0653009F050C00E94CD068C01B8
:105150002097B1F0898187FD13C081E00E949028DB
:1051600000E010E0980140E051E067EE7CE28F2D16
:105170000E946D258091640481608093640435C031
:105180008FE098EA15C00E94CD068C01209771F03F
:105190006A817B81161617064CF488819981DF910C
:1051A000CF911F910F91FF900C94FC068BE298EA2F
:1051B0000E94DC318AE00E948A28D8015096ED9145
:1051C000FC9151978FEF80838F2DDF91CF911F91AD
:1051D0000F91FF900C94CC2500E010E0980140E086
:1051E00051E067EE7CE20E946D25DF91CF911F9127
:1051F0000F91FF900895CF93DF93CDB7DEB7299736
:10520000CDBFDEBF0E94FF268EE595EA0E94DC310D
:1052100087E498EA0E94DC310E94210187E0682E31
:105220008BE5782E44244A949AEF592E28EC222EAE
:1052300025EA322E3EE5E32E39EAF32E4BEFC42E5B
:105240004DE2D42E0E94CD068C01E091A62C8E2F2B
:1052500090E08C30910508F0ACC0FC01E85BFF4F9A
:105260000C940D300E943D1F882351F08FE498EA82
:105270000E94DC318AE798EA0E94DC3181E097C025
:105280008FE998EA0E94DC3182E091C08DEB98EAC8
:105290000E94DC3189E08BC080916404877F809319
:1052A00064048DED98E20E9410264B015C011F9270
:1052B0005F928DED98E29F938F933F922F920E9481
:1052C000C63126EA37E24AEFC501B4010E946A26D8
:1052D00084E00E948A280F900F900F900F900F90FB
:1052E0000F9067C00E941D2460E070E086E998E29C
:1052F0000E94302486E05BC0D80150968D909C902F
:10530000519740E061E082E090E00E943924F4018E
:105310008083D8015096ED91FC915197808187FD53
:1053200035C082E090E08093062E9093072E609225
:10533000082E7092092E8DED98E20E94102660933F
:105340000A2E70930B2E80930C2E90930D2ED80165
:105350005096ED91FC91519740E166E07EE28081AC
:105360000E94C12487FF14C0D8015096ED91FC9192
:10537000519780810E94CC25D8015096ED91FC91E7
:105380005197408286EE98EA0E94DC318AE00FC095
:1053900087E00DC0809164048E7F8093640409C00F
:1053A00085E099EA0E94DC310E94210180E00E94A0
:1053B0008A288091A52C833081F198F4813009F0FE
:1053C000A6C00E942127C8010E94D1090E94CD06D3
:1053D0000E94390C83E00E94902889E00E948A286C
:1053E00096C0843009F442C0853009F090C08CE446
:1053F00099EA0E94DC3189E0E5E7F9EADE011196DD
:1054000001900D928A95E1F7CE0101960E94412705
:10541000C8010E94D10983E026C00E94CD068C01FC
:1054200087E199EA0E94DC31C8010E94390C0E9490
:10543000CE098093162E803261F484E299EA0E94AC
:10544000DC3185E00E949028809164048B7F8093FA
:1054500064048091162E803909F059C088E399EAD6
:105460000E94DC3184E00E94902851C08091A42CDD
:10547000882309F449C00E9419289B01AC01CB0183
:10548000DA018093F32D9093F42DA093F52DB09332
:10549000F62D5F934F933F932F93FF92EF92DF92FE
:1054A000CF920E940C326BEF7DE283E699EA0E9474
:1054B0006527C8010E94D1090E9438289B01AC01D0
:1054C000CB01DA018093F72D9093F82DA093F92D5D
:1054D000B093FA2D5F934F933F932F93FF92EF92E8
:1054E000DF92CF920E940C326BEF7DE289E699EA5F
:1054F0000E9465271092A42C9091640482E0892771
:1055000080936404CDBFDEBFC8010E94D1090E9410
:10551000F10580E090E00E943B1F94CE5058BB27DD
:10552000AA270E94A62A0C94C12B0E94B32B38F004
:105530000E94BA2B20F039F49F3F19F426F40C9402
:10554000B02B0EF4E095E7FB0C94AA2BE92F0E94F8
:10555000D22B58F3BA17620773078407950720F018
:1055600079F4A6F50C94F42B0EF4E0950B2EBA2FDB
:10557000A02D0B01B90190010C01CA01A001112459
:10558000FF27591B99F0593F50F4503E68F11A1605
:10559000F040A22F232F342F4427585FF3CF469596
:1055A00037952795A795F0405395C9F77EF41F16B8
:1055B000BA0B620B730B840BBAF09150A1F0FF0F82
:1055C000BB1F661F771F881FC2F70EC0BA0F621F6E
:1055D000731F841F48F4879577956795B795F7955E
:1055E0009E3F08F0B0CF9395880F08F09927EE0FF3
:1055F0009795879508950E940F2B0C94C12B0E94BC
:10560000BA2B58F00E94B32B40F029F45F3F29F0E9
:105610000C94AA2B51110C94F52B0C94B02B0E94D6
:10562000D22B68F39923B1F3552391F3951B550BB6
:10563000BB27AA2762177307840738F09F5F5F4F65
:10564000220F331F441FAA1FA9F335D00E2E3AF0A4
:10565000E0E832D091505040E695001CCAF72BD0BC
:10566000FE2F29D0660F771F881FBB1F261737070D
:105670004807AB07B0E809F0BB0B802DBF01FF273F
:1056800093585F4F3AF09E3F510578F00C94AA2B47
:105690000C94F52B5F3FE4F3983ED4F38695779511
:1056A0006795B795F7959F5FC9F7880F911D9695F8
:1056B000879597F90895E1E0660F771F881FBB1F54
:1056C000621773078407BA0720F0621B730B840B01
:1056D000BA0BEE1F88F7E0950895E89409C097FB90
:1056E0003EF490958095709561957F4F8F4F9F4FB9
:1056F0009923A9F0F92F96E9BB279395F6958795FD
:1057000077956795B795F111F8CFFAF4BB0F11F4BF
:1057100060FF1BC06F5F7F4F8F4F9F4F16C0882366
:1057200011F096E911C0772321F09EE8872F762F9C
:1057300005C0662371F096E8862F70E060E02AF0DD
:105740009A95660F771F881FDAF7880F96958795C9
:1057500097F9089597F99F6780E870E060E00895F1
:105760009FEF80EC089500240A9416161706180679
:105770000906089500240A94121613061406050655
:105780000895092E0394000C11F4882352F0BB0FE6
:1057900040F4BF2B11F460FF04C06F5F7F4F8F4F49
:1057A0009F4F089557FD9058440F551F59F05F3F84
:1057B00071F04795880F97FB991F61F09F3F79F033
:1057C00087950895121613061406551FF2CF4695B5
:1057D000F1DF08C0161617061806991FF1CF869537
:1057E0007105610508940895E894BB27662777271B
:1057F000CB0197F908950E940E2C0C94C12B0E94A6
:10580000B32B38F00E94BA2B20F0952311F00C94A2
:10581000AA2B0C94B02B11240C94F52B0E94D22BA4
:1058200070F3959FC1F3950F50E0551F629FF001F3
:10583000729FBB27F00DB11D639FAA27F00DB11D0C
:10584000AA1F649F6627B00DA11D661F829F222795
:10585000B00DA11D621F739FB00DA11D621F839F1C
:10586000A00D611D221F749F3327A00D611D231FF2
:10587000849F600D211D822F762F6A2F11249F5740
:1058800050409AF0F1F088234AF0EE0FFF1FBB1F43
:10589000661F771F881F91505040A9F79E3F510502
:1058A00080F00C94AA2B0C94F52B5F3FE4F3983E08
:1058B000D4F3869577956795B795F795E7959F5FAC
:1058C000C1F7FE2B880F911D9695879597F908953E
:1058D000A0E1B0E0EEE6FCE20C942D307C011B016F
:1058E0006A01FC0116821782838181FF44C39E01F5
:1058F0002F5F3F4F3901F7019381F10193FD8591AE
:1059000093FF81911F01882309F431C3853239F453
:1059100093FD859193FF81911F01853239F4B70181
:1059200090E00E948A3156016501E5CF10E0512CCC
:10593000912CFFE1F915D8F08B3279F038F48032F0
:1059400079F08332A1F4F92DF0612EC08D3261F02F
:10595000803369F4292D21602DC0392D3260932EBA
:10596000892D8460982E2AC0E92DE86015C097FC27
:105970002DC020ED280F2A3088F496FE06C03AE0AC
:10598000139F200D1124122F19C08AE0589E200D5C
:105990001124522EE92DE0629E2E10C08E3231F479
:1059A00096FCE5C2F92DF0649F2E08C08C3621F4D8
:1059B000292D2068922E02C0883641F4F10193FD12
:1059C000859193FF81911F018111B3CF9BEB980FBC
:1059D000933020F4992D9061805E07C09BE9980F69
:1059E000933008F066C1992D9F7E96FF16E09F7355
:1059F000992E853619F49064992E08C0863621F4C4
:105A0000392F3068932E02C01111115097FE07C034
:105A10001C3350F444244394410E27E00BC018304B
:105A200038F027E017E005C027E09CE3492E02C0CC
:105A3000212F412C560184E0A80EB11CF601608193
:105A4000718182819381042DA3010E945E306C01DB
:105A5000F981FC87F0FF02C0F3FF06C091FC06C08D
:105A600092FE06C000E205C00DE203C00BE201C0D9
:105A700000E08C858C7019F001115AC29BC297FE10
:105A800010C04C0CFC85F4FF04C08A81813309F4FA
:105A90004A94141474F528E0241578F588E0482E0B
:105AA0002CC096FC2AC0812F90E08C159D059CF09F
:105AB0003CEFC3163FEFD30674F0892D8068982E13
:105AC0000AC0E2E0F0E0EC0FFD1FE10FF11D808164
:105AD000803319F411501111F4CF97FE0EC04424F5
